{
  "_format": "hh-sol-artifact-1",
  "contractName": "TicketMarketplace",
  "sourceName": "contracts/cryptoPass.sol",
  "abi": [
    {
      "inputs": [],
      "stateMutability": "nonpayable",
      "type": "constructor"
    },
    {
      "inputs": [
        {
          "internalType": "address",
          "name": "sender",
          "type": "address"
        },
        {
          "internalType": "uint256",
          "name": "balance",
          "type": "uint256"
        },
        {
          "internalType": "uint256",
          "name": "needed",
          "type": "uint256"
        },
        {
          "internalType": "uint256",
          "name": "tokenId",
          "type": "uint256"
        }
      ],
      "name": "ERC1155InsufficientBalance",
      "type": "error"
    },
    {
      "inputs": [
        {
          "internalType": "address",
          "name": "approver",
          "type": "address"
        }
      ],
      "name": "ERC1155InvalidApprover",
      "type": "error"
    },
    {
      "inputs": [
        {
          "internalType": "uint256",
          "name": "idsLength",
          "type": "uint256"
        },
        {
          "internalType": "uint256",
          "name": "valuesLength",
          "type": "uint256"
        }
      ],
      "name": "ERC1155InvalidArrayLength",
      "type": "error"
    },
    {
      "inputs": [
        {
          "internalType": "address",
          "name": "operator",
          "type": "address"
        }
      ],
      "name": "ERC1155InvalidOperator",
      "type": "error"
    },
    {
      "inputs": [
        {
          "internalType": "address",
          "name": "receiver",
          "type": "address"
        }
      ],
      "name": "ERC1155InvalidReceiver",
      "type": "error"
    },
    {
      "inputs": [
        {
          "internalType": "address",
          "name": "sender",
          "type": "address"
        }
      ],
      "name": "ERC1155InvalidSender",
      "type": "error"
    },
    {
      "inputs": [
        {
          "internalType": "address",
          "name": "operator",
          "type": "address"
        },
        {
          "internalType": "address",
          "name": "owner",
          "type": "address"
        }
      ],
      "name": "ERC1155MissingApprovalForAll",
      "type": "error"
    },
    {
      "inputs": [],
      "name": "ReentrancyGuardReentrantCall",
      "type": "error"
    },
    {
      "anonymous": false,
      "inputs": [
        {
          "indexed": true,
          "internalType": "address",
          "name": "account",
          "type": "address"
        },
        {
          "indexed": true,
          "internalType": "address",
          "name": "operator",
          "type": "address"
        },
        {
          "indexed": false,
          "internalType": "bool",
          "name": "approved",
          "type": "bool"
        }
      ],
      "name": "ApprovalForAll",
      "type": "event"
    },
    {
      "anonymous": false,
      "inputs": [
        {
          "indexed": false,
          "internalType": "uint256",
          "name": "eventId",
          "type": "uint256"
        },
        {
          "indexed": false,
          "internalType": "string",
          "name": "bandId",
          "type": "string"
        },
        {
          "indexed": false,
          "internalType": "uint256",
          "name": "eventNumber",
          "type": "uint256"
        },
        {
          "indexed": false,
          "internalType": "uint256",
          "name": "maxTickets",
          "type": "uint256"
        },
        {
          "indexed": false,
          "internalType": "uint256",
          "name": "ticketPrice",
          "type": "uint256"
        },
        {
          "indexed": false,
          "internalType": "uint256[]",
          "name": "tokenIds",
          "type": "uint256[]"
        }
      ],
      "name": "EventCreated",
      "type": "event"
    },
    {
      "anonymous": false,
      "inputs": [
        {
          "indexed": false,
          "internalType": "uint256",
          "name": "tokenId",
          "type": "uint256"
        },
        {
          "indexed": false,
          "internalType": "address",
          "name": "buyer",
          "type": "address"
        },
        {
          "indexed": false,
          "internalType": "uint256",
          "name": "price",
          "type": "uint256"
        }
      ],
      "name": "TicketBought",
      "type": "event"
    },
    {
      "anonymous": false,
      "inputs": [
        {
          "indexed": false,
          "internalType": "uint256",
          "name": "tokenId",
          "type": "uint256"
        },
        {
          "indexed": false,
          "internalType": "uint256",
          "name": "price",
          "type": "uint256"
        },
        {
          "indexed": false,
          "internalType": "address",
          "name": "seller",
          "type": "address"
        }
      ],
      "name": "TicketListedForResale",
      "type": "event"
    },
    {
      "anonymous": false,
      "inputs": [
        {
          "indexed": false,
          "internalType": "uint256",
          "name": "tokenId",
          "type": "uint256"
        },
        {
          "indexed": false,
          "internalType": "address",
          "name": "buyer",
          "type": "address"
        },
        {
          "indexed": false,
          "internalType": "uint256",
          "name": "price",
          "type": "uint256"
        }
      ],
      "name": "TicketPurchased",
      "type": "event"
    },
    {
      "anonymous": false,
      "inputs": [
        {
          "indexed": false,
          "internalType": "uint256",
          "name": "tokenId",
          "type": "uint256"
        },
        {
          "indexed": false,
          "internalType": "address",
          "name": "buyer",
          "type": "address"
        }
      ],
      "name": "TicketSold",
      "type": "event"
    },
    {
      "anonymous": false,
      "inputs": [
        {
          "indexed": false,
          "internalType": "uint256",
          "name": "tokenId",
          "type": "uint256"
        },
        {
          "indexed": false,
          "internalType": "address",
          "name": "validator",
          "type": "address"
        }
      ],
      "name": "TicketValidated",
      "type": "event"
    },
    {
      "anonymous": false,
      "inputs": [
        {
          "indexed": true,
          "internalType": "address",
          "name": "operator",
          "type": "address"
        },
        {
          "indexed": true,
          "internalType": "address",
          "name": "from",
          "type": "address"
        },
        {
          "indexed": true,
          "internalType": "address",
          "name": "to",
          "type": "address"
        },
        {
          "indexed": false,
          "internalType": "uint256[]",
          "name": "ids",
          "type": "uint256[]"
        },
        {
          "indexed": false,
          "internalType": "uint256[]",
          "name": "values",
          "type": "uint256[]"
        }
      ],
      "name": "TransferBatch",
      "type": "event"
    },
    {
      "anonymous": false,
      "inputs": [
        {
          "indexed": true,
          "internalType": "address",
          "name": "operator",
          "type": "address"
        },
        {
          "indexed": true,
          "internalType": "address",
          "name": "from",
          "type": "address"
        },
        {
          "indexed": true,
          "internalType": "address",
          "name": "to",
          "type": "address"
        },
        {
          "indexed": false,
          "internalType": "uint256",
          "name": "id",
          "type": "uint256"
        },
        {
          "indexed": false,
          "internalType": "uint256",
          "name": "value",
          "type": "uint256"
        }
      ],
      "name": "TransferSingle",
      "type": "event"
    },
    {
      "anonymous": false,
      "inputs": [
        {
          "indexed": false,
          "internalType": "string",
          "name": "value",
          "type": "string"
        },
        {
          "indexed": true,
          "internalType": "uint256",
          "name": "id",
          "type": "uint256"
        }
      ],
      "name": "URI",
      "type": "event"
    },
    {
      "inputs": [
        {
          "internalType": "address",
          "name": "account",
          "type": "address"
        },
        {
          "internalType": "uint256",
          "name": "id",
          "type": "uint256"
        }
      ],
      "name": "balanceOf",
      "outputs": [
        {
          "internalType": "uint256",
          "name": "",
          "type": "uint256"
        }
      ],
      "stateMutability": "view",
      "type": "function"
    },
    {
      "inputs": [
        {
          "internalType": "address[]",
          "name": "accounts",
          "type": "address[]"
        },
        {
          "internalType": "uint256[]",
          "name": "ids",
          "type": "uint256[]"
        }
      ],
      "name": "balanceOfBatch",
      "outputs": [
        {
          "internalType": "uint256[]",
          "name": "",
          "type": "uint256[]"
        }
      ],
      "stateMutability": "view",
      "type": "function"
    },
    {
      "inputs": [
        {
          "internalType": "string",
          "name": "",
          "type": "string"
        }
      ],
      "name": "bandEventCounts",
      "outputs": [
        {
          "internalType": "uint256",
          "name": "",
          "type": "uint256"
        }
      ],
      "stateMutability": "view",
      "type": "function"
    },
    {
      "inputs": [
        {
          "internalType": "address",
          "name": "",
          "type": "address"
        }
      ],
      "name": "buyCount",
      "outputs": [
        {
          "internalType": "uint256",
          "name": "",
          "type": "uint256"
        }
      ],
      "stateMutability": "view",
      "type": "function"
    },
    {
      "inputs": [
        {
          "internalType": "uint256",
          "name": "tokenId",
          "type": "uint256"
        }
      ],
      "name": "buyResellTicket",
      "outputs": [],
      "stateMutability": "payable",
      "type": "function"
    },
    {
      "inputs": [
        {
          "internalType": "uint256",
          "name": "tokenId",
          "type": "uint256"
        }
      ],
      "name": "buyTicket",
      "outputs": [],
      "stateMutability": "payable",
      "type": "function"
    },
    {
      "inputs": [
        {
          "internalType": "string",
          "name": "bandId",
          "type": "string"
        },
        {
          "internalType": "string",
          "name": "ticketType",
          "type": "string"
        },
        {
          "internalType": "uint256",
          "name": "maxTickets",
          "type": "uint256"
        },
        {
          "internalType": "uint256",
          "name": "ticketPrice",
          "type": "uint256"
        },
        {
          "internalType": "uint256",
          "name": "eventTimestamp",
          "type": "uint256"
        }
      ],
      "name": "createEvent",
      "outputs": [],
      "stateMutability": "nonpayable",
      "type": "function"
    },
    {
      "inputs": [
        {
          "internalType": "uint256",
          "name": "",
          "type": "uint256"
        }
      ],
      "name": "events",
      "outputs": [
        {
          "internalType": "string",
          "name": "bandId",
          "type": "string"
        },
        {
          "internalType": "uint256",
          "name": "eventNumber",
          "type": "uint256"
        },
        {
          "internalType": "string",
          "name": "ticketType",
          "type": "string"
        },
        {
          "internalType": "uint256",
          "name": "maxTickets",
          "type": "uint256"
        },
        {
          "internalType": "uint256",
          "name": "ticketPrice",
          "type": "uint256"
        },
        {
          "internalType": "uint256",
          "name": "ticketsSold",
          "type": "uint256"
        },
        {
          "internalType": "uint256",
          "name": "eventTimestamp",
          "type": "uint256"
        }
      ],
      "stateMutability": "view",
      "type": "function"
    },
    {
      "inputs": [
        {
          "internalType": "uint256",
          "name": "tokenId",
          "type": "uint256"
        }
      ],
      "name": "getTicketDetails",
      "outputs": [
        {
          "components": [
            {
              "internalType": "string",
              "name": "bandId",
              "type": "string"
            },
            {
              "internalType": "uint256",
              "name": "eventNumber",
              "type": "uint256"
            },
            {
              "internalType": "string",
              "name": "ticketType",
              "type": "string"
            },
            {
              "internalType": "uint256",
              "name": "seatNumber",
              "type": "uint256"
            },
            {
              "internalType": "bool",
              "name": "used",
              "type": "bool"
            }
          ],
          "internalType": "struct TicketMarketplace.TicketDetails",
          "name": "",
          "type": "tuple"
        }
      ],
      "stateMutability": "view",
      "type": "function"
    },
    {
      "inputs": [
        {
          "internalType": "address",
          "name": "account",
          "type": "address"
        },
        {
          "internalType": "address",
          "name": "operator",
          "type": "address"
        }
      ],
      "name": "isApprovedForAll",
      "outputs": [
        {
          "internalType": "bool",
          "name": "",
          "type": "bool"
        }
      ],
      "stateMutability": "view",
      "type": "function"
    },
    {
      "inputs": [
        {
          "internalType": "uint256",
          "name": "",
          "type": "uint256"
        }
      ],
      "name": "isTicketUsed",
      "outputs": [
        {
          "internalType": "bool",
          "name": "",
          "type": "bool"
        }
      ],
      "stateMutability": "view",
      "type": "function"
    },
    {
      "inputs": [],
      "name": "marketplaceFeePercent",
      "outputs": [
        {
          "internalType": "uint256",
          "name": "",
          "type": "uint256"
        }
      ],
      "stateMutability": "view",
      "type": "function"
    },
    {
      "inputs": [
        {
          "internalType": "address",
          "name": "operator",
          "type": "address"
        },
        {
          "internalType": "address",
          "name": "from",
          "type": "address"
        },
        {
          "internalType": "uint256[]",
          "name": "ids",
          "type": "uint256[]"
        },
        {
          "internalType": "uint256[]",
          "name": "values",
          "type": "uint256[]"
        },
        {
          "internalType": "bytes",
          "name": "data",
          "type": "bytes"
        }
      ],
      "name": "onERC1155BatchReceived",
      "outputs": [
        {
          "internalType": "bytes4",
          "name": "",
          "type": "bytes4"
        }
      ],
      "stateMutability": "nonpayable",
      "type": "function"
    },
    {
      "inputs": [
        {
          "internalType": "address",
          "name": "operator",
          "type": "address"
        },
        {
          "internalType": "address",
          "name": "from",
          "type": "address"
        },
        {
          "internalType": "uint256",
          "name": "id",
          "type": "uint256"
        },
        {
          "internalType": "uint256",
          "name": "value",
          "type": "uint256"
        },
        {
          "internalType": "bytes",
          "name": "data",
          "type": "bytes"
        }
      ],
      "name": "onERC1155Received",
      "outputs": [
        {
          "internalType": "bytes4",
          "name": "",
          "type": "bytes4"
        }
      ],
      "stateMutability": "nonpayable",
      "type": "function"
    },
    {
      "inputs": [],
      "name": "owner",
      "outputs": [
        {
          "internalType": "address",
          "name": "",
          "type": "address"
        }
      ],
      "stateMutability": "view",
      "type": "function"
    },
    {
      "inputs": [
        {
          "internalType": "uint256",
          "name": "",
          "type": "uint256"
        }
      ],
      "name": "resellListings",
      "outputs": [
        {
          "internalType": "uint256",
          "name": "tokenId",
          "type": "uint256"
        },
        {
          "internalType": "uint256",
          "name": "price",
          "type": "uint256"
        },
        {
          "internalType": "address",
          "name": "seller",
          "type": "address"
        }
      ],
      "stateMutability": "view",
      "type": "function"
    },
    {
      "inputs": [
        {
          "internalType": "uint256",
          "name": "tokenId",
          "type": "uint256"
        },
        {
          "internalType": "uint256",
          "name": "resalePrice",
          "type": "uint256"
        }
      ],
      "name": "resellTicket",
      "outputs": [],
      "stateMutability": "nonpayable",
      "type": "function"
    },
    {
      "inputs": [
        {
          "internalType": "address",
          "name": "from",
          "type": "address"
        },
        {
          "internalType": "address",
          "name": "to",
          "type": "address"
        },
        {
          "internalType": "uint256[]",
          "name": "ids",
          "type": "uint256[]"
        },
        {
          "internalType": "uint256[]",
          "name": "values",
          "type": "uint256[]"
        },
        {
          "internalType": "bytes",
          "name": "data",
          "type": "bytes"
        }
      ],
      "name": "safeBatchTransferFrom",
      "outputs": [],
      "stateMutability": "nonpayable",
      "type": "function"
    },
    {
      "inputs": [
        {
          "internalType": "address",
          "name": "from",
          "type": "address"
        },
        {
          "internalType": "address",
          "name": "to",
          "type": "address"
        },
        {
          "internalType": "uint256",
          "name": "id",
          "type": "uint256"
        },
        {
          "internalType": "uint256",
          "name": "value",
          "type": "uint256"
        },
        {
          "internalType": "bytes",
          "name": "data",
          "type": "bytes"
        }
      ],
      "name": "safeTransferFrom",
      "outputs": [],
      "stateMutability": "nonpayable",
      "type": "function"
    },
    {
      "inputs": [
        {
          "internalType": "address",
          "name": "operator",
          "type": "address"
        },
        {
          "internalType": "bool",
          "name": "approved",
          "type": "bool"
        }
      ],
      "name": "setApprovalForAll",
      "outputs": [],
      "stateMutability": "nonpayable",
      "type": "function"
    },
    {
      "inputs": [
        {
          "internalType": "bytes4",
          "name": "interfaceId",
          "type": "bytes4"
        }
      ],
      "name": "supportsInterface",
      "outputs": [
        {
          "internalType": "bool",
          "name": "",
          "type": "bool"
        }
      ],
      "stateMutability": "view",
      "type": "function"
    },
    {
      "inputs": [
        {
          "internalType": "uint256",
          "name": "",
          "type": "uint256"
        }
      ],
      "name": "ticketOriginalPrice",
      "outputs": [
        {
          "internalType": "uint256",
          "name": "",
          "type": "uint256"
        }
      ],
      "stateMutability": "view",
      "type": "function"
    },
    {
      "inputs": [
        {
          "internalType": "uint256",
          "name": "",
          "type": "uint256"
        }
      ],
      "name": "tokenOwner",
      "outputs": [
        {
          "internalType": "address",
          "name": "",
          "type": "address"
        }
      ],
      "stateMutability": "view",
      "type": "function"
    },
    {
      "inputs": [],
      "name": "totalEvents",
      "outputs": [
        {
          "internalType": "uint256",
          "name": "",
          "type": "uint256"
        }
      ],
      "stateMutability": "view",
      "type": "function"
    },
    {
      "inputs": [
        {
          "internalType": "uint256",
          "name": "",
          "type": "uint256"
        }
      ],
      "name": "uri",
      "outputs": [
        {
          "internalType": "string",
          "name": "",
          "type": "string"
        }
      ],
      "stateMutability": "view",
      "type": "function"
    },
    {
      "inputs": [
        {
          "internalType": "uint256",
          "name": "tokenId",
          "type": "uint256"
        }
      ],
      "name": "validateTicket",
      "outputs": [],
      "stateMutability": "nonpayable",
      "type": "function"
    }
  ],
  "bytecode": "0x60a06040526002600e553480156200001657600080fd5b506040518060400160405280601681526020017f697066733a2f2f3c4349443e2f7b69647d2e6a736f6e000000000000000000008152506200005e81620000a160201b60201c565b5060016003819055503373ffffffffffffffffffffffffffffffffffffffff1660808173ffffffffffffffffffffffffffffffffffffffff168152505062000417565b8060029081620000b2919062000330565b5050565b600081519050919050565b7f4e487b7100000000000000000000000000000000000000000000000000000000600052604160045260246000fd5b7f4e487b7100000000000000000000000000000000000000000000000000000000600052602260045260246000fd5b600060028204905060018216806200013857607f821691505b6020821081036200014e576200014d620000f0565b5b50919050565b60008190508160005260206000209050919050565b60006020601f8301049050919050565b600082821b905092915050565b600060088302620001b87fffffffffffffffffffffffffffffffffffffffffffffffffffffffffffffffff8262000179565b620001c4868362000179565b95508019841693508086168417925050509392505050565b6000819050919050565b6000819050919050565b6000620002116200020b6200020584620001dc565b620001e6565b620001dc565b9050919050565b6000819050919050565b6200022d83620001f0565b620002456200023c8262000218565b84845462000186565b825550505050565b600090565b6200025c6200024d565b6200026981848462000222565b505050565b5b8181101562000291576200028560008262000252565b6001810190506200026f565b5050565b601f821115620002e057620002aa8162000154565b620002b58462000169565b81016020851015620002c5578190505b620002dd620002d48562000169565b8301826200026e565b50505b505050565b600082821c905092915050565b60006200030560001984600802620002e5565b1980831691505092915050565b6000620003208383620002f2565b9150826002028217905092915050565b6200033b82620000b6565b67ffffffffffffffff811115620003575762000356620000c1565b5b6200036382546200011f565b6200037082828562000295565b600060209050601f831160018114620003a8576000841562000393578287015190505b6200039f858262000312565b8655506200040f565b601f198416620003b88662000154565b60005b82811015620003e257848901518255600182019150602085019450602081019050620003bb565b86831015620004025784890151620003fe601f891682620002f2565b8355505b6001600288020188555050505b505050505050565b60805161486c6200043a600039600081816118710152611b2e015261486c6000f3fe6080604052600436106101805760003560e01c80634e1273f4116100d1578063bc197c811161008a578063dcf0e14311610064578063dcf0e143146105ef578063e985e9c51461062c578063f23a6e6114610669578063f242432a146106a657610180565b8063bc197c8114610559578063d8fe0c0714610596578063dcc080f3146105b257610180565b80634e1273f41461044457806367dd74ca146104815780638da5cb5b1461049d5780639fefe7f4146104c8578063a22cb46514610505578063ba8706861461052e57610180565b806324c141601161013e578063348e991311610118578063348e99131461038857806338d73b0d146103b15780633c2fc56c146103dc57806349a704c41461040557610180565b806324c14160146102e55780632cd1d35c146103225780632eb2c2d61461035f57610180565b8062fdd58e1461018557806301ffc9a7146101c2578063054ae7df146101ff5780630b791430146102285780630e89341c1461026b5780631caaa487146102a8575b600080fd5b34801561019157600080fd5b506101ac60048036038101906101a79190612e33565b6106cf565b6040516101b99190612e82565b60405180910390f35b3480156101ce57600080fd5b506101e960048036038101906101e49190612ef5565b610729565b6040516101f69190612f3d565b60405180910390f35b34801561020b57600080fd5b5061022660048036038101906102219190612f58565b61080b565b005b34801561023457600080fd5b5061024f600480360381019061024a9190612f58565b61098b565b6040516102629796959493929190613015565b60405180910390f35b34801561027757600080fd5b50610292600480360381019061028d9190612f58565b610add565b60405161029f9190613092565b60405180910390f35b3480156102b457600080fd5b506102cf60048036038101906102ca9190612f58565b610b71565b6040516102dc91906130c3565b60405180910390f35b3480156102f157600080fd5b5061030c60048036038101906103079190612f58565b610ba4565b60405161031991906131c3565b60405180910390f35b34801561032e57600080fd5b5061034960048036038101906103449190612f58565b610d5a565b6040516103569190612f3d565b60405180910390f35b34801561036b57600080fd5b50610386600480360381019061038191906133e2565b610d7a565b005b34801561039457600080fd5b506103af60048036038101906103aa91906134b1565b610e22565b005b3480156103bd57600080fd5b506103c6611154565b6040516103d39190612e82565b60405180910390f35b3480156103e857600080fd5b5061040360048036038101906103fe9190613592565b61115a565b005b34801561041157600080fd5b5061042c60048036038101906104279190612f58565b6113f6565b60405161043b93929190613645565b60405180910390f35b34801561045057600080fd5b5061046b6004803603810190610466919061373f565b611440565b6040516104789190613866565b60405180910390f35b61049b60048036038101906104969190612f58565b611549565b005b3480156104a957600080fd5b506104b261186f565b6040516104bf91906130c3565b60405180910390f35b3480156104d457600080fd5b506104ef60048036038101906104ea9190613888565b611893565b6040516104fc9190612e82565b60405180910390f35b34801561051157600080fd5b5061052c600480360381019061052791906138e1565b6118ab565b005b34801561053a57600080fd5b506105436118c1565b6040516105509190612e82565b60405180910390f35b34801561056557600080fd5b50610580600480360381019061057b91906133e2565b6118c7565b60405161058d9190613930565b60405180910390f35b6105b060048036038101906105ab9190612f58565b6118dc565b005b3480156105be57600080fd5b506105d960048036038101906105d49190612f58565b611ccd565b6040516105e69190612e82565b60405180910390f35b3480156105fb57600080fd5b506106166004803603810190610611919061394b565b611ce5565b6040516106239190612e82565b60405180910390f35b34801561063857600080fd5b50610653600480360381019061064e9190613994565b611d13565b6040516106609190612f3d565b60405180910390f35b34801561067557600080fd5b50610690600480360381019061068b91906139d4565b611da7565b60405161069d9190613930565b60405180910390f35b3480156106b257600080fd5b506106cd60048036038101906106c891906139d4565b611dbc565b005b600080600083815260200190815260200160002060008473ffffffffffffffffffffffffffffffffffffffff1673ffffffffffffffffffffffffffffffffffffffff16815260200190815260200160002054905092915050565b60007fd9b67a26000000000000000000000000000000000000000000000000000000007bffffffffffffffffffffffffffffffffffffffffffffffffffffffff1916827bffffffffffffffffffffffffffffffffffffffffffffffffffffffff191614806107f457507f0e89341c000000000000000000000000000000000000000000000000000000007bffffffffffffffffffffffffffffffffffffffffffffffffffffffff1916827bffffffffffffffffffffffffffffffffffffffffffffffffffffffff1916145b80610804575061080382611e64565b5b9050919050565b600b60006005600084815260200190815260200160002060010154815260200190815260200160002060009054906101000a900473ffffffffffffffffffffffffffffffffffffffff1673ffffffffffffffffffffffffffffffffffffffff163373ffffffffffffffffffffffffffffffffffffffff16146108c2576040517f08c379a00000000000000000000000000000000000000000000000000000000081526004016108b990613ab7565b60405180910390fd5b6008600082815260200190815260200160002060009054906101000a900460ff1615610923576040517f08c379a000000000000000000000000000000000000000000000000000000000815260040161091a90613b23565b60405180910390fd5b60016008600083815260200190815260200160002060006101000a81548160ff0219169083151502179055507f7523a5038b0221808d5987c7a4c3a6d9074ed76bf247f76665b2ed493e8fd1fb8133604051610980929190613b43565b60405180910390a150565b60056020528060005260406000206000915090508060000180546109ae90613b9b565b80601f01602080910402602001604051908101604052809291908181526020018280546109da90613b9b565b8015610a275780601f106109fc57610100808354040283529160200191610a27565b820191906000526020600020905b815481529060010190602001808311610a0a57829003601f168201915b505050505090806001015490806002018054610a4290613b9b565b80601f0160208091040260200160405190810160405280929190818152602001828054610a6e90613b9b565b8015610abb5780601f10610a9057610100808354040283529160200191610abb565b820191906000526020600020905b815481529060010190602001808311610a9e57829003601f168201915b5050505050908060030154908060040154908060050154908060060154905087565b606060028054610aec90613b9b565b80601f0160208091040260200160405190810160405280929190818152602001828054610b1890613b9b565b8015610b655780601f10610b3a57610100808354040283529160200191610b65565b820191906000526020600020905b815481529060010190602001808311610b4857829003601f168201915b50505050509050919050565b600c6020528060005260406000206000915054906101000a900473ffffffffffffffffffffffffffffffffffffffff1681565b610bac612d5a565b6000600a60008481526020019081526020016000206040518060a0016040529081600082018054610bdc90613b9b565b80601f0160208091040260200160405190810160405280929190818152602001828054610c0890613b9b565b8015610c555780601f10610c2a57610100808354040283529160200191610c55565b820191906000526020600020905b815481529060010190602001808311610c3857829003601f168201915b5050505050815260200160018201548152602001600282018054610c7890613b9b565b80601f0160208091040260200160405190810160405280929190818152602001828054610ca490613b9b565b8015610cf15780601f10610cc657610100808354040283529160200191610cf1565b820191906000526020600020905b815481529060010190602001808311610cd457829003601f168201915b50505050508152602001600382015481526020016004820160009054906101000a900460ff16151515158152505090506008600084815260200190815260200160002060009054906101000a900460ff1681608001901515908115158152505080915050919050565b60086020528060005260406000206000915054906101000a900460ff1681565b6000610d84611ece565b90508073ffffffffffffffffffffffffffffffffffffffff168673ffffffffffffffffffffffffffffffffffffffff1614158015610dc95750610dc78682611d13565b155b15610e0d5780866040517fe237d922000000000000000000000000000000000000000000000000000000008152600401610e04929190613bcc565b60405180910390fd5b610e1a8686868686611ed6565b505050505050565b610e2a611fce565b3373ffffffffffffffffffffffffffffffffffffffff16600c600084815260200190815260200160002060009054906101000a900473ffffffffffffffffffffffffffffffffffffffff1673ffffffffffffffffffffffffffffffffffffffff1614610ecb576040517f08c379a0000000000000000000000000000000000000000000000000000000008152600401610ec290613c41565b60405180910390fd5b6008600083815260200190815260200160002060009054906101000a900460ff1615610f2c576040517f08c379a0000000000000000000000000000000000000000000000000000000008152600401610f2390613cad565b60405180910390fd5b6000600660008481526020019081526020016000205490506064600a82610f539190613cfc565b610f5d9190613d6d565b81610f689190613d9e565b821115610faa576040517f08c379a0000000000000000000000000000000000000000000000000000000008152600401610fa190613e1e565b60405180910390fd5b610fb2612014565b610fbc3330611d13565b610ffb576040517f08c379a0000000000000000000000000000000000000000000000000000000008152600401610ff290613e8a565b60405180910390fd5b611018333085600160405180602001604052806000815250612021565b60405180606001604052808481526020018381526020013373ffffffffffffffffffffffffffffffffffffffff1681525060076000858152602001908152602001600020600082015181600001556020820151816001015560408201518160020160006101000a81548173ffffffffffffffffffffffffffffffffffffffff021916908373ffffffffffffffffffffffffffffffffffffffff16021790555090505030600c600085815260200190815260200160002060006101000a81548173ffffffffffffffffffffffffffffffffffffffff021916908373ffffffffffffffffffffffffffffffffffffffff1602179055507f796a59a7a4c697d47537610ecd74a44a1c7903071c0330e278f4529fc167c0ee83833360405161113f93929190613645565b60405180910390a15061115061212c565b5050565b600e5481565b600d600081548092919061116d90613eaa565b9190505550600060016004876040516111869190613f2e565b90815260200160405180910390205461119f9190613d9e565b90506004866040516111b19190613f2e565b908152602001604051809103902060008154809291906111d090613eaa565b91905055506040518060e00160405280878152602001828152602001868152602001858152602001848152602001600081526020018381525060056000600d548152602001908152602001600020600082015181600001908161123391906140f1565b5060208201518160010155604082015181600201908161125391906140f1565b50606082015181600301556080820151816004015560a0820151816005015560c0820151816006015590505033600b6000600d54815260200190815260200160002060006101000a81548173ffffffffffffffffffffffffffffffffffffffff021916908373ffffffffffffffffffffffffffffffffffffffff160217905550611301336112e388848989612136565b6112ec876121d5565b60405180602001604052806000815250612267565b61130c3060016118ab565b60005b8481101561139f576000611325888489856122ed565b905084600660008381526020019081526020016000208190555033600c600083815260200190815260200160002060006101000a81548173ffffffffffffffffffffffffffffffffffffffff021916908373ffffffffffffffffffffffffffffffffffffffff16021790555050808060010191505061130f565b507ff78c72ccdc3dd803a74359f78e42df868f530b70baffd8939cbe78cfdfe47b8e600d54878387876113d48c888d8d612136565b6040516113e6969594939291906141c3565b60405180910390a1505050505050565b60076020528060005260406000206000915090508060000154908060010154908060020160009054906101000a900473ffffffffffffffffffffffffffffffffffffffff16905083565b6060815183511461148c57815183516040517f5b059991000000000000000000000000000000000000000000000000000000008152600401611483929190614232565b60405180910390fd5b6000835167ffffffffffffffff8111156114a9576114a86131ea565b5b6040519080825280602002602001820160405280156114d75781602001602082028036833780820191505090505b50905060005b845181101561153e576115146114fc82876123d090919063ffffffff16565b61150f83876123e490919063ffffffff16565b6106cf565b8282815181106115275761152661425b565b5b6020026020010181815250508060010190506114dd565b508091505092915050565b611551611fce565b600a600960003373ffffffffffffffffffffffffffffffffffffffff1673ffffffffffffffffffffffffffffffffffffffff16815260200190815260200160002054106115d3576040517f08c379a00000000000000000000000000000000000000000000000000000000081526004016115ca906142d6565b60405180910390fd5b6000600660008381526020019081526020016000205490506000600c600084815260200190815260200160002060009054906101000a900473ffffffffffffffffffffffffffffffffffffffff1690503373ffffffffffffffffffffffffffffffffffffffff168173ffffffffffffffffffffffffffffffffffffffff1603611691576040517f08c379a000000000000000000000000000000000000000000000000000000000815260040161168890614342565b60405180910390fd5b8134146116d3576040517f08c379a00000000000000000000000000000000000000000000000000000000081526004016116ca906143ae565b60405180910390fd5b6116dd8130611d13565b61171c576040517f08c379a00000000000000000000000000000000000000000000000000000000081526004016117139061441a565b60405180910390fd5b611739813385600160405180602001604052806000815250612021565b8073ffffffffffffffffffffffffffffffffffffffff166108fc349081150290604051600060405180830381858888f1935050505015801561177f573d6000803e3d6000fd5b5033600c600085815260200190815260200160002060006101000a81548173ffffffffffffffffffffffffffffffffffffffff021916908373ffffffffffffffffffffffffffffffffffffffff160217905550600960003373ffffffffffffffffffffffffffffffffffffffff1673ffffffffffffffffffffffffffffffffffffffff168152602001908152602001600020600081548092919061182290613eaa565b91905055507f913d09b391f64143215d9312fd7e8ecaa06001c646789c9d2109dc515bc34fad83338460405161185a9392919061443a565b60405180910390a1505061186c61212c565b50565b7f000000000000000000000000000000000000000000000000000000000000000081565b60096020528060005260406000206000915090505481565b6118bd6118b6611ece565b83836123f8565b5050565b600d5481565b600063bc197c8160e01b905095945050505050565b6118e4611fce565b60006007600083815260200190815260200160002060405180606001604052908160008201548152602001600182015481526020016002820160009054906101000a900473ffffffffffffffffffffffffffffffffffffffff1673ffffffffffffffffffffffffffffffffffffffff1673ffffffffffffffffffffffffffffffffffffffff16815250509050600073ffffffffffffffffffffffffffffffffffffffff16816040015173ffffffffffffffffffffffffffffffffffffffff16036119e3576040517f08c379a00000000000000000000000000000000000000000000000000000000081526004016119da906144bd565b60405180910390fd5b80602001513414611a29576040517f08c379a0000000000000000000000000000000000000000000000000000000008152600401611a2090614529565b60405180910390fd5b3373ffffffffffffffffffffffffffffffffffffffff16816040015173ffffffffffffffffffffffffffffffffffffffff1603611a9b576040517f08c379a0000000000000000000000000000000000000000000000000000000008152600401611a9290614595565b60405180910390fd5b611ab8303384600160405180602001604052806000815250612021565b60006064600e5434611aca9190613cfc565b611ad49190613d6d565b9050816040015173ffffffffffffffffffffffffffffffffffffffff166108fc8234611b0091906145b5565b9081150290604051600060405180830381858888f19350505050158015611b2b573d6000803e3d6000fd5b507f000000000000000000000000000000000000000000000000000000000000000073ffffffffffffffffffffffffffffffffffffffff166108fc829081150290604051600060405180830381858888f19350505050158015611b92573d6000803e3d6000fd5b50600960003373ffffffffffffffffffffffffffffffffffffffff1673ffffffffffffffffffffffffffffffffffffffff1681526020019081526020016000206000815480929190611be390613eaa565b919050555033600c600085815260200190815260200160002060006101000a81548173ffffffffffffffffffffffffffffffffffffffff021916908373ffffffffffffffffffffffffffffffffffffffff1602179055506007600084815260200190815260200160002060008082016000905560018201600090556002820160006101000a81549073ffffffffffffffffffffffffffffffffffffffff021916905550507fe39135ae9a8f1caafd7e67a9dd98cef770246b0fe0178a0e41b622db0053499d8333604051611cb8929190613b43565b60405180910390a15050611cca61212c565b50565b60066020528060005260406000206000915090505481565b6004818051602081018201805184825260208301602085012081835280955050505050506000915090505481565b6000600160008473ffffffffffffffffffffffffffffffffffffffff1673ffffffffffffffffffffffffffffffffffffffff16815260200190815260200160002060008373ffffffffffffffffffffffffffffffffffffffff1673ffffffffffffffffffffffffffffffffffffffff16815260200190815260200160002060009054906101000a900460ff16905092915050565b600063f23a6e6160e01b905095945050505050565b6000611dc6611ece565b90508073ffffffffffffffffffffffffffffffffffffffff168673ffffffffffffffffffffffffffffffffffffffff1614158015611e0b5750611e098682611d13565b155b15611e4f5780866040517fe237d922000000000000000000000000000000000000000000000000000000008152600401611e46929190613bcc565b60405180910390fd5b611e5c8686868686612021565b505050505050565b60007f01ffc9a7000000000000000000000000000000000000000000000000000000007bffffffffffffffffffffffffffffffffffffffffffffffffffffffff1916827bffffffffffffffffffffffffffffffffffffffffffffffffffffffff1916149050919050565b600033905090565b600073ffffffffffffffffffffffffffffffffffffffff168473ffffffffffffffffffffffffffffffffffffffff1603611f485760006040517f57f447ce000000000000000000000000000000000000000000000000000000008152600401611f3f91906130c3565b60405180910390fd5b600073ffffffffffffffffffffffffffffffffffffffff168573ffffffffffffffffffffffffffffffffffffffff1603611fba5760006040517f01a83514000000000000000000000000000000000000000000000000000000008152600401611fb191906130c3565b60405180910390fd5b611fc78585858585612568565b5050505050565b60026003540361200a576040517f3ee5aeb500000000000000000000000000000000000000000000000000000000815260040160405180910390fd5b6002600381905550565b61201f3060016118ab565b565b600073ffffffffffffffffffffffffffffffffffffffff168473ffffffffffffffffffffffffffffffffffffffff16036120935760006040517f57f447ce00000000000000000000000000000000000000000000000000000000815260040161208a91906130c3565b60405180910390fd5b600073ffffffffffffffffffffffffffffffffffffffff168573ffffffffffffffffffffffffffffffffffffffff16036121055760006040517f01a835140000000000000000000000000000000000000000000000000000000081526004016120fc91906130c3565b60405180910390fd5b600080612112858561261a565b915091506121238787848487612568565b50505050505050565b6001600381905550565b606060008267ffffffffffffffff811115612154576121536131ea565b5b6040519080825280602002602001820160405280156121825781602001602082028036833780820191505090505b50905060005b838110156121c85761219c878787846122ed565b8282815181106121af576121ae61425b565b5b6020026020010181815250508080600101915050612188565b5080915050949350505050565b606060008267ffffffffffffffff8111156121f3576121f26131ea565b5b6040519080825280602002602001820160405280156122215781602001602082028036833780820191505090505b50905060005b8381101561225d5760018282815181106122445761224361425b565b5b6020026020010181815250508080600101915050612227565b5080915050919050565b600073ffffffffffffffffffffffffffffffffffffffff168473ffffffffffffffffffffffffffffffffffffffff16036122d95760006040517f57f447ce0000000000000000000000000000000000000000000000000000000081526004016122d091906130c3565b60405180910390fd5b6122e7600085858585612568565b50505050565b600080858585854260405160200161230995949392919061460a565b6040516020818303038152906040528051906020012060001c90506040518060a0016040528087815260200186815260200185815260200184815260200160001515815250600a6000838152602001908152602001600020600082015181600001908161237691906140f1565b5060208201518160010155604082015181600201908161239691906140f1565b506060820151816003015560808201518160040160006101000a81548160ff02191690831515021790555090505080915050949350505050565b600060208202602084010151905092915050565b600060208202602084010151905092915050565b600073ffffffffffffffffffffffffffffffffffffffff168273ffffffffffffffffffffffffffffffffffffffff160361246a5760006040517fced3e10000000000000000000000000000000000000000000000000000000000815260040161246191906130c3565b60405180910390fd5b80600160008573ffffffffffffffffffffffffffffffffffffffff1673ffffffffffffffffffffffffffffffffffffffff16815260200190815260200160002060008473ffffffffffffffffffffffffffffffffffffffff1673ffffffffffffffffffffffffffffffffffffffff16815260200190815260200160002060006101000a81548160ff0219169083151502179055508173ffffffffffffffffffffffffffffffffffffffff168373ffffffffffffffffffffffffffffffffffffffff167f17307eab39ab6107e8899845ad3d59bd9653f200f220920489ca2b5937696c318360405161255b9190612f3d565b60405180910390a3505050565b6125748585858561264a565b600073ffffffffffffffffffffffffffffffffffffffff168473ffffffffffffffffffffffffffffffffffffffff16146126135760006125b2611ece565b905060018451036126025760006125d36000866123e490919063ffffffff16565b905060006125eb6000866123e490919063ffffffff16565b90506125fb8389898585896129f2565b5050612611565b612610818787878787612ba6565b5b505b5050505050565b60608060405191506001825283602083015260408201905060018152826020820152604081016040529250929050565b805182511461269457815181516040517f5b05999100000000000000000000000000000000000000000000000000000000815260040161268b929190614232565b60405180910390fd5b600061269e611ece565b905060005b83518110156128ad5760006126c182866123e490919063ffffffff16565b905060006126d883866123e490919063ffffffff16565b9050600073ffffffffffffffffffffffffffffffffffffffff168873ffffffffffffffffffffffffffffffffffffffff161461280557600080600084815260200190815260200160002060008a73ffffffffffffffffffffffffffffffffffffffff1673ffffffffffffffffffffffffffffffffffffffff168152602001908152602001600020549050818110156127ad57888183856040517f03dee4c50000000000000000000000000000000000000000000000000000000081526004016127a49493929190614661565b60405180910390fd5b81810360008085815260200190815260200160002060008b73ffffffffffffffffffffffffffffffffffffffff1673ffffffffffffffffffffffffffffffffffffffff16815260200190815260200160002081905550505b600073ffffffffffffffffffffffffffffffffffffffff168773ffffffffffffffffffffffffffffffffffffffff16146128a0578060008084815260200190815260200160002060008973ffffffffffffffffffffffffffffffffffffffff1673ffffffffffffffffffffffffffffffffffffffff16815260200190815260200160002060008282546128989190613d9e565b925050819055505b50508060010190506126a3565b50600183510361296c5760006128cd6000856123e490919063ffffffff16565b905060006128e56000856123e490919063ffffffff16565b90508573ffffffffffffffffffffffffffffffffffffffff168773ffffffffffffffffffffffffffffffffffffffff168473ffffffffffffffffffffffffffffffffffffffff167fc3d58168c5ae7397731d063d5bbf3d657854427343f4c083240f7aacaa2d0f62858560405161295d929190614232565b60405180910390a450506129eb565b8373ffffffffffffffffffffffffffffffffffffffff168573ffffffffffffffffffffffffffffffffffffffff168273ffffffffffffffffffffffffffffffffffffffff167f4a39dc06d4c0dbc64b70af90fd698a233a518aa5d07e595d983b8c0526c8f7fb86866040516129e29291906146a6565b60405180910390a45b5050505050565b60008473ffffffffffffffffffffffffffffffffffffffff163b1115612b9e578373ffffffffffffffffffffffffffffffffffffffff1663f23a6e6187878686866040518663ffffffff1660e01b8152600401612a53959493929190614732565b6020604051808303816000875af1925050508015612a8f57506040513d601f19601f82011682018060405250810190612a8c91906147a1565b60015b612b13573d8060008114612abf576040519150601f19603f3d011682016040523d82523d6000602084013e612ac4565b606091505b506000815103612b0b57846040517f57f447ce000000000000000000000000000000000000000000000000000000008152600401612b0291906130c3565b60405180910390fd5b805181602001fd5b63f23a6e6160e01b7bffffffffffffffffffffffffffffffffffffffffffffffffffffffff1916817bffffffffffffffffffffffffffffffffffffffffffffffffffffffff191614612b9c57846040517f57f447ce000000000000000000000000000000000000000000000000000000008152600401612b9391906130c3565b60405180910390fd5b505b505050505050565b60008473ffffffffffffffffffffffffffffffffffffffff163b1115612d52578373ffffffffffffffffffffffffffffffffffffffff1663bc197c8187878686866040518663ffffffff1660e01b8152600401612c079594939291906147ce565b6020604051808303816000875af1925050508015612c4357506040513d601f19601f82011682018060405250810190612c4091906147a1565b60015b612cc7573d8060008114612c73576040519150601f19603f3d011682016040523d82523d6000602084013e612c78565b606091505b506000815103612cbf57846040517f57f447ce000000000000000000000000000000000000000000000000000000008152600401612cb691906130c3565b60405180910390fd5b805181602001fd5b63bc197c8160e01b7bffffffffffffffffffffffffffffffffffffffffffffffffffffffff1916817bffffffffffffffffffffffffffffffffffffffffffffffffffffffff191614612d5057846040517f57f447ce000000000000000000000000000000000000000000000000000000008152600401612d4791906130c3565b60405180910390fd5b505b505050505050565b6040518060a00160405280606081526020016000815260200160608152602001600081526020016000151581525090565b6000604051905090565b600080fd5b600080fd5b600073ffffffffffffffffffffffffffffffffffffffff82169050919050565b6000612dca82612d9f565b9050919050565b612dda81612dbf565b8114612de557600080fd5b50565b600081359050612df781612dd1565b92915050565b6000819050919050565b612e1081612dfd565b8114612e1b57600080fd5b50565b600081359050612e2d81612e07565b92915050565b60008060408385031215612e4a57612e49612d95565b5b6000612e5885828601612de8565b9250506020612e6985828601612e1e565b9150509250929050565b612e7c81612dfd565b82525050565b6000602082019050612e976000830184612e73565b92915050565b60007fffffffff0000000000000000000000000000000000000000000000000000000082169050919050565b612ed281612e9d565b8114612edd57600080fd5b50565b600081359050612eef81612ec9565b92915050565b600060208284031215612f0b57612f0a612d95565b5b6000612f1984828501612ee0565b91505092915050565b60008115159050919050565b612f3781612f22565b82525050565b6000602082019050612f526000830184612f2e565b92915050565b600060208284031215612f6e57612f6d612d95565b5b6000612f7c84828501612e1e565b91505092915050565b600081519050919050565b600082825260208201905092915050565b60005b83811015612fbf578082015181840152602081019050612fa4565b60008484015250505050565b6000601f19601f8301169050919050565b6000612fe782612f85565b612ff18185612f90565b9350613001818560208601612fa1565b61300a81612fcb565b840191505092915050565b600060e082019050818103600083015261302f818a612fdc565b905061303e6020830189612e73565b81810360408301526130508188612fdc565b905061305f6060830187612e73565b61306c6080830186612e73565b61307960a0830185612e73565b61308660c0830184612e73565b98975050505050505050565b600060208201905081810360008301526130ac8184612fdc565b905092915050565b6130bd81612dbf565b82525050565b60006020820190506130d860008301846130b4565b92915050565b600082825260208201905092915050565b60006130fa82612f85565b61310481856130de565b9350613114818560208601612fa1565b61311d81612fcb565b840191505092915050565b61313181612dfd565b82525050565b61314081612f22565b82525050565b600060a083016000830151848203600086015261316382826130ef565b91505060208301516131786020860182613128565b506040830151848203604086015261319082826130ef565b91505060608301516131a56060860182613128565b5060808301516131b86080860182613137565b508091505092915050565b600060208201905081810360008301526131dd8184613146565b905092915050565b600080fd5b7f4e487b7100000000000000000000000000000000000000000000000000000000600052604160045260246000fd5b61322282612fcb565b810181811067ffffffffffffffff82111715613241576132406131ea565b5b80604052505050565b6000613254612d8b565b90506132608282613219565b919050565b600067ffffffffffffffff8211156132805761327f6131ea565b5b602082029050602081019050919050565b600080fd5b60006132a96132a484613265565b61324a565b905080838252602082019050602084028301858111156132cc576132cb613291565b5b835b818110156132f557806132e18882612e1e565b8452602084019350506020810190506132ce565b5050509392505050565b600082601f830112613314576133136131e5565b5b8135613324848260208601613296565b91505092915050565b600080fd5b600067ffffffffffffffff82111561334d5761334c6131ea565b5b61335682612fcb565b9050602081019050919050565b82818337600083830152505050565b600061338561338084613332565b61324a565b9050828152602081018484840111156133a1576133a061332d565b5b6133ac848285613363565b509392505050565b600082601f8301126133c9576133c86131e5565b5b81356133d9848260208601613372565b91505092915050565b600080600080600060a086880312156133fe576133fd612d95565b5b600061340c88828901612de8565b955050602061341d88828901612de8565b945050604086013567ffffffffffffffff81111561343e5761343d612d9a565b5b61344a888289016132ff565b935050606086013567ffffffffffffffff81111561346b5761346a612d9a565b5b613477888289016132ff565b925050608086013567ffffffffffffffff81111561349857613497612d9a565b5b6134a4888289016133b4565b9150509295509295909350565b600080604083850312156134c8576134c7612d95565b5b60006134d685828601612e1e565b92505060206134e785828601612e1e565b9150509250929050565b600067ffffffffffffffff82111561350c5761350b6131ea565b5b61351582612fcb565b9050602081019050919050565b6000613535613530846134f1565b61324a565b9050828152602081018484840111156135515761355061332d565b5b61355c848285613363565b509392505050565b600082601f830112613579576135786131e5565b5b8135613589848260208601613522565b91505092915050565b600080600080600060a086880312156135ae576135ad612d95565b5b600086013567ffffffffffffffff8111156135cc576135cb612d9a565b5b6135d888828901613564565b955050602086013567ffffffffffffffff8111156135f9576135f8612d9a565b5b61360588828901613564565b945050604061361688828901612e1e565b935050606061362788828901612e1e565b925050608061363888828901612e1e565b9150509295509295909350565b600060608201905061365a6000830186612e73565b6136676020830185612e73565b61367460408301846130b4565b949350505050565b600067ffffffffffffffff821115613697576136966131ea565b5b602082029050602081019050919050565b60006136bb6136b68461367c565b61324a565b905080838252602082019050602084028301858111156136de576136dd613291565b5b835b8181101561370757806136f38882612de8565b8452602084019350506020810190506136e0565b5050509392505050565b600082601f830112613726576137256131e5565b5b81356137368482602086016136a8565b91505092915050565b6000806040838503121561375657613755612d95565b5b600083013567ffffffffffffffff81111561377457613773612d9a565b5b61378085828601613711565b925050602083013567ffffffffffffffff8111156137a1576137a0612d9a565b5b6137ad858286016132ff565b9150509250929050565b600081519050919050565b600082825260208201905092915050565b6000819050602082019050919050565b60006137ef8383613128565b60208301905092915050565b6000602082019050919050565b6000613813826137b7565b61381d81856137c2565b9350613828836137d3565b8060005b8381101561385957815161384088826137e3565b975061384b836137fb565b92505060018101905061382c565b5085935050505092915050565b600060208201905081810360008301526138808184613808565b905092915050565b60006020828403121561389e5761389d612d95565b5b60006138ac84828501612de8565b91505092915050565b6138be81612f22565b81146138c957600080fd5b50565b6000813590506138db816138b5565b92915050565b600080604083850312156138f8576138f7612d95565b5b600061390685828601612de8565b9250506020613917858286016138cc565b9150509250929050565b61392a81612e9d565b82525050565b60006020820190506139456000830184613921565b92915050565b60006020828403121561396157613960612d95565b5b600082013567ffffffffffffffff81111561397f5761397e612d9a565b5b61398b84828501613564565b91505092915050565b600080604083850312156139ab576139aa612d95565b5b60006139b985828601612de8565b92505060206139ca85828601612de8565b9150509250929050565b600080600080600060a086880312156139f0576139ef612d95565b5b60006139fe88828901612de8565b9550506020613a0f88828901612de8565b9450506040613a2088828901612e1e565b9350506060613a3188828901612e1e565b925050608086013567ffffffffffffffff811115613a5257613a51612d9a565b5b613a5e888289016133b4565b9150509295509295909350565b7f4f6e6c79206576656e742063726561746f722063616e2076616c696461746500600082015250565b6000613aa1601f83612f90565b9150613aac82613a6b565b602082019050919050565b60006020820190508181036000830152613ad081613a94565b9050919050565b7f5469636b657420616c7265616479207573656400000000000000000000000000600082015250565b6000613b0d601383612f90565b9150613b1882613ad7565b602082019050919050565b60006020820190508181036000830152613b3c81613b00565b9050919050565b6000604082019050613b586000830185612e73565b613b6560208301846130b4565b9392505050565b7f4e487b7100000000000000000000000000000000000000000000000000000000600052602260045260246000fd5b60006002820490506001821680613bb357607f821691505b602082108103613bc657613bc5613b6c565b5b50919050565b6000604082019050613be160008301856130b4565b613bee60208301846130b4565b9392505050565b7f596f7520646f206e6f74206f776e2074686973207469636b6574000000000000600082015250565b6000613c2b601a83612f90565b9150613c3682613bf5565b602082019050919050565b60006020820190508181036000830152613c5a81613c1e565b9050919050565b7f55736564207469636b6574732063616e6e6f74206265207265736f6c64000000600082015250565b6000613c97601d83612f90565b9150613ca282613c61565b602082019050919050565b60006020820190508181036000830152613cc681613c8a565b9050919050565b7f4e487b7100000000000000000000000000000000000000000000000000000000600052601160045260246000fd5b6000613d0782612dfd565b9150613d1283612dfd565b9250828202613d2081612dfd565b91508282048414831517613d3757613d36613ccd565b5b5092915050565b7f4e487b7100000000000000000000000000000000000000000000000000000000600052601260045260246000fd5b6000613d7882612dfd565b9150613d8383612dfd565b925082613d9357613d92613d3e565b5b828204905092915050565b6000613da982612dfd565b9150613db483612dfd565b9250828201905080821115613dcc57613dcb613ccd565b5b92915050565b7f4d617820726573616c6520707269636520657863656564656400000000000000600082015250565b6000613e08601983612f90565b9150613e1382613dd2565b602082019050919050565b60006020820190508181036000830152613e3781613dfb565b9050919050565b7f417070726f76652074686520636f6e7472616374206669727374000000000000600082015250565b6000613e74601a83612f90565b9150613e7f82613e3e565b602082019050919050565b60006020820190508181036000830152613ea381613e67565b9050919050565b6000613eb582612dfd565b91507fffffffffffffffffffffffffffffffffffffffffffffffffffffffffffffffff8203613ee757613ee6613ccd565b5b600182019050919050565b600081905092915050565b6000613f0882612f85565b613f128185613ef2565b9350613f22818560208601612fa1565b80840191505092915050565b6000613f3a8284613efd565b915081905092915050565b60008190508160005260206000209050919050565b60006020601f8301049050919050565b600082821b905092915050565b600060088302613fa77fffffffffffffffffffffffffffffffffffffffffffffffffffffffffffffffff82613f6a565b613fb18683613f6a565b95508019841693508086168417925050509392505050565b6000819050919050565b6000613fee613fe9613fe484612dfd565b613fc9565b612dfd565b9050919050565b6000819050919050565b61400883613fd3565b61401c61401482613ff5565b848454613f77565b825550505050565b600090565b614031614024565b61403c818484613fff565b505050565b5b8181101561406057614055600082614029565b600181019050614042565b5050565b601f8211156140a55761407681613f45565b61407f84613f5a565b8101602085101561408e578190505b6140a261409a85613f5a565b830182614041565b50505b505050565b600082821c905092915050565b60006140c8600019846008026140aa565b1980831691505092915050565b60006140e183836140b7565b9150826002028217905092915050565b6140fa82612f85565b67ffffffffffffffff811115614113576141126131ea565b5b61411d8254613b9b565b614128828285614064565b600060209050601f83116001811461415b5760008415614149578287015190505b61415385826140d5565b8655506141bb565b601f19841661416986613f45565b60005b828110156141915784890151825560018201915060208501945060208101905061416c565b868310156141ae57848901516141aa601f8916826140b7565b8355505b6001600288020188555050505b505050505050565b600060c0820190506141d86000830189612e73565b81810360208301526141ea8188612fdc565b90506141f96040830187612e73565b6142066060830186612e73565b6142136080830185612e73565b81810360a08301526142258184613808565b9050979650505050505050565b60006040820190506142476000830185612e73565b6142546020830184612e73565b9392505050565b7f4e487b7100000000000000000000000000000000000000000000000000000000600052603260045260246000fd5b7f4d61782062757920636f756e7420726561636865640000000000000000000000600082015250565b60006142c0601583612f90565b91506142cb8261428a565b602082019050919050565b600060208201905081810360008301526142ef816142b3565b9050919050565b7f596f7520616c7265616479206f776e2074686973207469636b65740000000000600082015250565b600061432c601b83612f90565b9150614337826142f6565b602082019050919050565b6000602082019050818103600083015261435b8161431f565b9050919050565b7f496e636f727265637420416d6f756e742053656e740000000000000000000000600082015250565b6000614398601583612f90565b91506143a382614362565b602082019050919050565b600060208201905081810360008301526143c78161438b565b9050919050565b7f4d61726b6574706c616365206e6f7420617070726f7665640000000000000000600082015250565b6000614404601883612f90565b915061440f826143ce565b602082019050919050565b60006020820190508181036000830152614433816143f7565b9050919050565b600060608201905061444f6000830186612e73565b61445c60208301856130b4565b6144696040830184612e73565b949350505050565b7f5469636b6574206e6f7420666f7220726573616c650000000000000000000000600082015250565b60006144a7601583612f90565b91506144b282614471565b602082019050919050565b600060208201905081810360008301526144d68161449a565b9050919050565b7f496e636f727265637420616d6f756e742073656e740000000000000000000000600082015250565b6000614513601583612f90565b915061451e826144dd565b602082019050919050565b6000602082019050818103600083015261454281614506565b9050919050565b7f43616e6e6f742062757920796f7572206f776e207469636b6574000000000000600082015250565b600061457f601a83612f90565b915061458a82614549565b602082019050919050565b600060208201905081810360008301526145ae81614572565b9050919050565b60006145c082612dfd565b91506145cb83612dfd565b92508282039050818111156145e3576145e2613ccd565b5b92915050565b6000819050919050565b6146046145ff82612dfd565b6145e9565b82525050565b60006146168288613efd565b915061462282876145f3565b6020820191506146328286613efd565b915061463e82856145f3565b60208201915061464e82846145f3565b6020820191508190509695505050505050565b600060808201905061467660008301876130b4565b6146836020830186612e73565b6146906040830185612e73565b61469d6060830184612e73565b95945050505050565b600060408201905081810360008301526146c08185613808565b905081810360208301526146d48184613808565b90509392505050565b600081519050919050565b600082825260208201905092915050565b6000614704826146dd565b61470e81856146e8565b935061471e818560208601612fa1565b61472781612fcb565b840191505092915050565b600060a08201905061474760008301886130b4565b61475460208301876130b4565b6147616040830186612e73565b61476e6060830185612e73565b818103608083015261478081846146f9565b90509695505050505050565b60008151905061479b81612ec9565b92915050565b6000602082840312156147b7576147b6612d95565b5b60006147c58482850161478c565b91505092915050565b600060a0820190506147e360008301886130b4565b6147f060208301876130b4565b81810360408301526148028186613808565b905081810360608301526148168185613808565b9050818103608083015261482a81846146f9565b9050969550505050505056fea264697066735822122004618a4b5d50345c04110e28011f41bdb8a1e272393ebc9069e239d6ab694a0064736f6c63430008180033",
  "linkReferences": {},
  "deployedLinkReferences": {}
}