{
  "_format": "hh-sol-artifact-1",
  "contractName": "TicketMarketplace",
  "sourceName": "contracts/cryptoPass.sol",
  "abi": [
    {
      "inputs": [],
      "stateMutability": "nonpayable",
      "type": "constructor"
    },
    {
      "inputs": [
        {
          "internalType": "address",
          "name": "sender",
          "type": "address"
        },
        {
          "internalType": "uint256",
          "name": "balance",
          "type": "uint256"
        },
        {
          "internalType": "uint256",
          "name": "needed",
          "type": "uint256"
        },
        {
          "internalType": "uint256",
          "name": "tokenId",
          "type": "uint256"
        }
      ],
      "name": "ERC1155InsufficientBalance",
      "type": "error"
    },
    {
      "inputs": [
        {
          "internalType": "address",
          "name": "approver",
          "type": "address"
        }
      ],
      "name": "ERC1155InvalidApprover",
      "type": "error"
    },
    {
      "inputs": [
        {
          "internalType": "uint256",
          "name": "idsLength",
          "type": "uint256"
        },
        {
          "internalType": "uint256",
          "name": "valuesLength",
          "type": "uint256"
        }
      ],
      "name": "ERC1155InvalidArrayLength",
      "type": "error"
    },
    {
      "inputs": [
        {
          "internalType": "address",
          "name": "operator",
          "type": "address"
        }
      ],
      "name": "ERC1155InvalidOperator",
      "type": "error"
    },
    {
      "inputs": [
        {
          "internalType": "address",
          "name": "receiver",
          "type": "address"
        }
      ],
      "name": "ERC1155InvalidReceiver",
      "type": "error"
    },
    {
      "inputs": [
        {
          "internalType": "address",
          "name": "sender",
          "type": "address"
        }
      ],
      "name": "ERC1155InvalidSender",
      "type": "error"
    },
    {
      "inputs": [
        {
          "internalType": "address",
          "name": "operator",
          "type": "address"
        },
        {
          "internalType": "address",
          "name": "owner",
          "type": "address"
        }
      ],
      "name": "ERC1155MissingApprovalForAll",
      "type": "error"
    },
    {
      "inputs": [],
      "name": "ReentrancyGuardReentrantCall",
      "type": "error"
    },
    {
      "anonymous": false,
      "inputs": [
        {
          "indexed": true,
          "internalType": "address",
          "name": "account",
          "type": "address"
        },
        {
          "indexed": true,
          "internalType": "address",
          "name": "operator",
          "type": "address"
        },
        {
          "indexed": false,
          "internalType": "bool",
          "name": "approved",
          "type": "bool"
        }
      ],
      "name": "ApprovalForAll",
      "type": "event"
    },
    {
      "anonymous": false,
      "inputs": [
        {
          "indexed": false,
          "internalType": "uint256",
          "name": "eventId",
          "type": "uint256"
        },
        {
          "indexed": false,
          "internalType": "string",
          "name": "bandId",
          "type": "string"
        },
        {
          "indexed": false,
          "internalType": "uint256",
          "name": "eventNumber",
          "type": "uint256"
        },
        {
          "indexed": false,
          "internalType": "uint256",
          "name": "maxTickets",
          "type": "uint256"
        },
        {
          "indexed": false,
          "internalType": "uint256",
          "name": "ticketPrice",
          "type": "uint256"
        }
      ],
      "name": "EventCreated",
      "type": "event"
    },
    {
      "anonymous": false,
      "inputs": [
        {
          "indexed": false,
          "internalType": "uint256",
          "name": "tokenId",
          "type": "uint256"
        },
        {
          "indexed": false,
          "internalType": "uint256",
          "name": "price",
          "type": "uint256"
        },
        {
          "indexed": false,
          "internalType": "address",
          "name": "seller",
          "type": "address"
        }
      ],
      "name": "TicketListedForResale",
      "type": "event"
    },
    {
      "anonymous": false,
      "inputs": [
        {
          "indexed": false,
          "internalType": "uint256",
          "name": "tokenId",
          "type": "uint256"
        },
        {
          "indexed": false,
          "internalType": "address",
          "name": "buyer",
          "type": "address"
        },
        {
          "indexed": false,
          "internalType": "uint256",
          "name": "price",
          "type": "uint256"
        }
      ],
      "name": "TicketPurchased",
      "type": "event"
    },
    {
      "anonymous": false,
      "inputs": [
        {
          "indexed": false,
          "internalType": "uint256",
          "name": "tokenId",
          "type": "uint256"
        },
        {
          "indexed": false,
          "internalType": "address",
          "name": "buyer",
          "type": "address"
        }
      ],
      "name": "TicketSold",
      "type": "event"
    },
    {
      "anonymous": false,
      "inputs": [
        {
          "indexed": false,
          "internalType": "uint256",
          "name": "tokenId",
          "type": "uint256"
        },
        {
          "indexed": false,
          "internalType": "address",
          "name": "validator",
          "type": "address"
        }
      ],
      "name": "TicketValidated",
      "type": "event"
    },
    {
      "anonymous": false,
      "inputs": [
        {
          "indexed": true,
          "internalType": "address",
          "name": "operator",
          "type": "address"
        },
        {
          "indexed": true,
          "internalType": "address",
          "name": "from",
          "type": "address"
        },
        {
          "indexed": true,
          "internalType": "address",
          "name": "to",
          "type": "address"
        },
        {
          "indexed": false,
          "internalType": "uint256[]",
          "name": "ids",
          "type": "uint256[]"
        },
        {
          "indexed": false,
          "internalType": "uint256[]",
          "name": "values",
          "type": "uint256[]"
        }
      ],
      "name": "TransferBatch",
      "type": "event"
    },
    {
      "anonymous": false,
      "inputs": [
        {
          "indexed": true,
          "internalType": "address",
          "name": "operator",
          "type": "address"
        },
        {
          "indexed": true,
          "internalType": "address",
          "name": "from",
          "type": "address"
        },
        {
          "indexed": true,
          "internalType": "address",
          "name": "to",
          "type": "address"
        },
        {
          "indexed": false,
          "internalType": "uint256",
          "name": "id",
          "type": "uint256"
        },
        {
          "indexed": false,
          "internalType": "uint256",
          "name": "value",
          "type": "uint256"
        }
      ],
      "name": "TransferSingle",
      "type": "event"
    },
    {
      "anonymous": false,
      "inputs": [
        {
          "indexed": false,
          "internalType": "string",
          "name": "value",
          "type": "string"
        },
        {
          "indexed": true,
          "internalType": "uint256",
          "name": "id",
          "type": "uint256"
        }
      ],
      "name": "URI",
      "type": "event"
    },
    {
      "inputs": [
        {
          "internalType": "address",
          "name": "account",
          "type": "address"
        },
        {
          "internalType": "uint256",
          "name": "id",
          "type": "uint256"
        }
      ],
      "name": "balanceOf",
      "outputs": [
        {
          "internalType": "uint256",
          "name": "",
          "type": "uint256"
        }
      ],
      "stateMutability": "view",
      "type": "function"
    },
    {
      "inputs": [
        {
          "internalType": "address[]",
          "name": "accounts",
          "type": "address[]"
        },
        {
          "internalType": "uint256[]",
          "name": "ids",
          "type": "uint256[]"
        }
      ],
      "name": "balanceOfBatch",
      "outputs": [
        {
          "internalType": "uint256[]",
          "name": "",
          "type": "uint256[]"
        }
      ],
      "stateMutability": "view",
      "type": "function"
    },
    {
      "inputs": [
        {
          "internalType": "string",
          "name": "",
          "type": "string"
        }
      ],
      "name": "bandEventCounts",
      "outputs": [
        {
          "internalType": "uint256",
          "name": "",
          "type": "uint256"
        }
      ],
      "stateMutability": "view",
      "type": "function"
    },
    {
      "inputs": [
        {
          "internalType": "address",
          "name": "",
          "type": "address"
        }
      ],
      "name": "buyCount",
      "outputs": [
        {
          "internalType": "uint256",
          "name": "",
          "type": "uint256"
        }
      ],
      "stateMutability": "view",
      "type": "function"
    },
    {
      "inputs": [
        {
          "internalType": "uint256",
          "name": "tokenId",
          "type": "uint256"
        }
      ],
      "name": "buyResellTicket",
      "outputs": [],
      "stateMutability": "payable",
      "type": "function"
    },
    {
      "inputs": [
        {
          "internalType": "uint256",
          "name": "tokenId",
          "type": "uint256"
        }
      ],
      "name": "buyTicket",
      "outputs": [],
      "stateMutability": "payable",
      "type": "function"
    },
    {
      "inputs": [
        {
          "internalType": "string",
          "name": "bandId",
          "type": "string"
        },
        {
          "internalType": "string",
          "name": "ticketType",
          "type": "string"
        },
        {
          "internalType": "uint256",
          "name": "maxTickets",
          "type": "uint256"
        },
        {
          "internalType": "uint256",
          "name": "ticketPrice",
          "type": "uint256"
        },
        {
          "internalType": "uint256",
          "name": "eventTimestamp",
          "type": "uint256"
        }
      ],
      "name": "createEvent",
      "outputs": [],
      "stateMutability": "nonpayable",
      "type": "function"
    },
    {
      "inputs": [
        {
          "internalType": "uint256",
          "name": "",
          "type": "uint256"
        }
      ],
      "name": "events",
      "outputs": [
        {
          "internalType": "string",
          "name": "bandId",
          "type": "string"
        },
        {
          "internalType": "uint256",
          "name": "eventNumber",
          "type": "uint256"
        },
        {
          "internalType": "string",
          "name": "ticketType",
          "type": "string"
        },
        {
          "internalType": "uint256",
          "name": "maxTickets",
          "type": "uint256"
        },
        {
          "internalType": "uint256",
          "name": "ticketPrice",
          "type": "uint256"
        },
        {
          "internalType": "uint256",
          "name": "ticketsSold",
          "type": "uint256"
        },
        {
          "internalType": "uint256",
          "name": "eventTimestamp",
          "type": "uint256"
        }
      ],
      "stateMutability": "view",
      "type": "function"
    },
    {
      "inputs": [
        {
          "internalType": "uint256",
          "name": "tokenId",
          "type": "uint256"
        }
      ],
      "name": "getTicketDetails",
      "outputs": [
        {
          "components": [
            {
              "internalType": "string",
              "name": "bandId",
              "type": "string"
            },
            {
              "internalType": "uint256",
              "name": "eventNumber",
              "type": "uint256"
            },
            {
              "internalType": "string",
              "name": "ticketType",
              "type": "string"
            },
            {
              "internalType": "uint256",
              "name": "seatNumber",
              "type": "uint256"
            },
            {
              "internalType": "bool",
              "name": "used",
              "type": "bool"
            }
          ],
          "internalType": "struct TicketMarketplace.TicketDetails",
          "name": "",
          "type": "tuple"
        }
      ],
      "stateMutability": "view",
      "type": "function"
    },
    {
      "inputs": [
        {
          "internalType": "address",
          "name": "account",
          "type": "address"
        },
        {
          "internalType": "address",
          "name": "operator",
          "type": "address"
        }
      ],
      "name": "isApprovedForAll",
      "outputs": [
        {
          "internalType": "bool",
          "name": "",
          "type": "bool"
        }
      ],
      "stateMutability": "view",
      "type": "function"
    },
    {
      "inputs": [
        {
          "internalType": "uint256",
          "name": "",
          "type": "uint256"
        }
      ],
      "name": "isTicketUsed",
      "outputs": [
        {
          "internalType": "bool",
          "name": "",
          "type": "bool"
        }
      ],
      "stateMutability": "view",
      "type": "function"
    },
    {
      "inputs": [],
      "name": "marketplaceFeePercent",
      "outputs": [
        {
          "internalType": "uint256",
          "name": "",
          "type": "uint256"
        }
      ],
      "stateMutability": "view",
      "type": "function"
    },
    {
      "inputs": [
        {
          "internalType": "address",
          "name": "operator",
          "type": "address"
        },
        {
          "internalType": "address",
          "name": "from",
          "type": "address"
        },
        {
          "internalType": "uint256[]",
          "name": "ids",
          "type": "uint256[]"
        },
        {
          "internalType": "uint256[]",
          "name": "values",
          "type": "uint256[]"
        },
        {
          "internalType": "bytes",
          "name": "data",
          "type": "bytes"
        }
      ],
      "name": "onERC1155BatchReceived",
      "outputs": [
        {
          "internalType": "bytes4",
          "name": "",
          "type": "bytes4"
        }
      ],
      "stateMutability": "nonpayable",
      "type": "function"
    },
    {
      "inputs": [
        {
          "internalType": "address",
          "name": "operator",
          "type": "address"
        },
        {
          "internalType": "address",
          "name": "from",
          "type": "address"
        },
        {
          "internalType": "uint256",
          "name": "id",
          "type": "uint256"
        },
        {
          "internalType": "uint256",
          "name": "value",
          "type": "uint256"
        },
        {
          "internalType": "bytes",
          "name": "data",
          "type": "bytes"
        }
      ],
      "name": "onERC1155Received",
      "outputs": [
        {
          "internalType": "bytes4",
          "name": "",
          "type": "bytes4"
        }
      ],
      "stateMutability": "nonpayable",
      "type": "function"
    },
    {
      "inputs": [],
      "name": "owner",
      "outputs": [
        {
          "internalType": "address",
          "name": "",
          "type": "address"
        }
      ],
      "stateMutability": "view",
      "type": "function"
    },
    {
      "inputs": [
        {
          "internalType": "uint256",
          "name": "",
          "type": "uint256"
        }
      ],
      "name": "resellListings",
      "outputs": [
        {
          "internalType": "uint256",
          "name": "tokenId",
          "type": "uint256"
        },
        {
          "internalType": "uint256",
          "name": "price",
          "type": "uint256"
        },
        {
          "internalType": "address",
          "name": "seller",
          "type": "address"
        }
      ],
      "stateMutability": "view",
      "type": "function"
    },
    {
      "inputs": [
        {
          "internalType": "uint256",
          "name": "tokenId",
          "type": "uint256"
        },
        {
          "internalType": "uint256",
          "name": "resalePrice",
          "type": "uint256"
        }
      ],
      "name": "resellTicket",
      "outputs": [],
      "stateMutability": "nonpayable",
      "type": "function"
    },
    {
      "inputs": [
        {
          "internalType": "address",
          "name": "from",
          "type": "address"
        },
        {
          "internalType": "address",
          "name": "to",
          "type": "address"
        },
        {
          "internalType": "uint256[]",
          "name": "ids",
          "type": "uint256[]"
        },
        {
          "internalType": "uint256[]",
          "name": "values",
          "type": "uint256[]"
        },
        {
          "internalType": "bytes",
          "name": "data",
          "type": "bytes"
        }
      ],
      "name": "safeBatchTransferFrom",
      "outputs": [],
      "stateMutability": "nonpayable",
      "type": "function"
    },
    {
      "inputs": [
        {
          "internalType": "address",
          "name": "from",
          "type": "address"
        },
        {
          "internalType": "address",
          "name": "to",
          "type": "address"
        },
        {
          "internalType": "uint256",
          "name": "id",
          "type": "uint256"
        },
        {
          "internalType": "uint256",
          "name": "value",
          "type": "uint256"
        },
        {
          "internalType": "bytes",
          "name": "data",
          "type": "bytes"
        }
      ],
      "name": "safeTransferFrom",
      "outputs": [],
      "stateMutability": "nonpayable",
      "type": "function"
    },
    {
      "inputs": [
        {
          "internalType": "address",
          "name": "operator",
          "type": "address"
        },
        {
          "internalType": "bool",
          "name": "approved",
          "type": "bool"
        }
      ],
      "name": "setApprovalForAll",
      "outputs": [],
      "stateMutability": "nonpayable",
      "type": "function"
    },
    {
      "inputs": [
        {
          "internalType": "bytes4",
          "name": "interfaceId",
          "type": "bytes4"
        }
      ],
      "name": "supportsInterface",
      "outputs": [
        {
          "internalType": "bool",
          "name": "",
          "type": "bool"
        }
      ],
      "stateMutability": "view",
      "type": "function"
    },
    {
      "inputs": [
        {
          "internalType": "uint256",
          "name": "",
          "type": "uint256"
        }
      ],
      "name": "ticketOriginalPrice",
      "outputs": [
        {
          "internalType": "uint256",
          "name": "",
          "type": "uint256"
        }
      ],
      "stateMutability": "view",
      "type": "function"
    },
    {
      "inputs": [
        {
          "internalType": "uint256",
          "name": "",
          "type": "uint256"
        }
      ],
      "name": "tokenOwner",
      "outputs": [
        {
          "internalType": "address",
          "name": "",
          "type": "address"
        }
      ],
      "stateMutability": "view",
      "type": "function"
    },
    {
      "inputs": [],
      "name": "totalEvents",
      "outputs": [
        {
          "internalType": "uint256",
          "name": "",
          "type": "uint256"
        }
      ],
      "stateMutability": "view",
      "type": "function"
    },
    {
      "inputs": [
        {
          "internalType": "uint256",
          "name": "",
          "type": "uint256"
        }
      ],
      "name": "uri",
      "outputs": [
        {
          "internalType": "string",
          "name": "",
          "type": "string"
        }
      ],
      "stateMutability": "view",
      "type": "function"
    },
    {
      "inputs": [
        {
          "internalType": "uint256",
          "name": "tokenId",
          "type": "uint256"
        }
      ],
      "name": "validateTicket",
      "outputs": [],
      "stateMutability": "nonpayable",
      "type": "function"
    }
  ],
  "bytecode": "0x60a06040526002600e553480156200001657600080fd5b506040518060400160405280601681526020017f697066733a2f2f3c4349443e2f7b69647d2e6a736f6e000000000000000000008152506200005e81620000a160201b60201c565b5060016003819055503373ffffffffffffffffffffffffffffffffffffffff1660808173ffffffffffffffffffffffffffffffffffffffff168152505062000417565b8060029081620000b2919062000330565b5050565b600081519050919050565b7f4e487b7100000000000000000000000000000000000000000000000000000000600052604160045260246000fd5b7f4e487b7100000000000000000000000000000000000000000000000000000000600052602260045260246000fd5b600060028204905060018216806200013857607f821691505b6020821081036200014e576200014d620000f0565b5b50919050565b60008190508160005260206000209050919050565b60006020601f8301049050919050565b600082821b905092915050565b600060088302620001b87fffffffffffffffffffffffffffffffffffffffffffffffffffffffffffffffff8262000179565b620001c4868362000179565b95508019841693508086168417925050509392505050565b6000819050919050565b6000819050919050565b6000620002116200020b6200020584620001dc565b620001e6565b620001dc565b9050919050565b6000819050919050565b6200022d83620001f0565b620002456200023c8262000218565b84845462000186565b825550505050565b600090565b6200025c6200024d565b6200026981848462000222565b505050565b5b8181101562000291576200028560008262000252565b6001810190506200026f565b5050565b601f821115620002e057620002aa8162000154565b620002b58462000169565b81016020851015620002c5578190505b620002dd620002d48562000169565b8301826200026e565b50505b505050565b600082821c905092915050565b60006200030560001984600802620002e5565b1980831691505092915050565b6000620003208383620002f2565b9150826002028217905092915050565b6200033b82620000b6565b67ffffffffffffffff811115620003575762000356620000c1565b5b6200036382546200011f565b6200037082828562000295565b600060209050601f831160018114620003a8576000841562000393578287015190505b6200039f858262000312565b8655506200040f565b601f198416620003b88662000154565b60005b82811015620003e257848901518255600182019150602085019450602081019050620003bb565b86831015620004025784890151620003fe601f891682620002f2565b8355505b6001600288020188555050505b505050505050565b6080516147d86200043a600039600081816118290152611ae601526147d86000f3fe6080604052600436106101805760003560e01c80634e1273f4116100d1578063bc197c811161008a578063dcf0e14311610064578063dcf0e143146105ef578063e985e9c51461062c578063f23a6e6114610669578063f242432a146106a657610180565b8063bc197c8114610559578063d8fe0c0714610596578063dcc080f3146105b257610180565b80634e1273f41461044457806367dd74ca146104815780638da5cb5b1461049d5780639fefe7f4146104c8578063a22cb46514610505578063ba8706861461052e57610180565b806324c141601161013e578063348e991311610118578063348e99131461038857806338d73b0d146103b15780633c2fc56c146103dc57806349a704c41461040557610180565b806324c14160146102e55780632cd1d35c146103225780632eb2c2d61461035f57610180565b8062fdd58e1461018557806301ffc9a7146101c2578063054ae7df146101ff5780630b791430146102285780630e89341c1461026b5780631caaa487146102a8575b600080fd5b34801561019157600080fd5b506101ac60048036038101906101a79190612deb565b6106cf565b6040516101b99190612e3a565b60405180910390f35b3480156101ce57600080fd5b506101e960048036038101906101e49190612ead565b610729565b6040516101f69190612ef5565b60405180910390f35b34801561020b57600080fd5b5061022660048036038101906102219190612f10565b61080b565b005b34801561023457600080fd5b5061024f600480360381019061024a9190612f10565b61098b565b6040516102629796959493929190612fcd565b60405180910390f35b34801561027757600080fd5b50610292600480360381019061028d9190612f10565b610add565b60405161029f919061304a565b60405180910390f35b3480156102b457600080fd5b506102cf60048036038101906102ca9190612f10565b610b71565b6040516102dc919061307b565b60405180910390f35b3480156102f157600080fd5b5061030c60048036038101906103079190612f10565b610ba4565b604051610319919061317b565b60405180910390f35b34801561032e57600080fd5b5061034960048036038101906103449190612f10565b610d5a565b6040516103569190612ef5565b60405180910390f35b34801561036b57600080fd5b506103866004803603810190610381919061339a565b610d7a565b005b34801561039457600080fd5b506103af60048036038101906103aa9190613469565b610e22565b005b3480156103bd57600080fd5b506103c6611154565b6040516103d39190612e3a565b60405180910390f35b3480156103e857600080fd5b5061040360048036038101906103fe919061354a565b61115a565b005b34801561041157600080fd5b5061042c60048036038101906104279190612f10565b6113e9565b60405161043b939291906135fd565b60405180910390f35b34801561045057600080fd5b5061046b600480360381019061046691906136f7565b611433565b604051610478919061381e565b60405180910390f35b61049b60048036038101906104969190612f10565b61153c565b005b3480156104a957600080fd5b506104b2611827565b6040516104bf919061307b565b60405180910390f35b3480156104d457600080fd5b506104ef60048036038101906104ea9190613840565b61184b565b6040516104fc9190612e3a565b60405180910390f35b34801561051157600080fd5b5061052c60048036038101906105279190613899565b611863565b005b34801561053a57600080fd5b50610543611879565b6040516105509190612e3a565b60405180910390f35b34801561056557600080fd5b50610580600480360381019061057b919061339a565b61187f565b60405161058d91906138e8565b60405180910390f35b6105b060048036038101906105ab9190612f10565b611894565b005b3480156105be57600080fd5b506105d960048036038101906105d49190612f10565b611c85565b6040516105e69190612e3a565b60405180910390f35b3480156105fb57600080fd5b5061061660048036038101906106119190613903565b611c9d565b6040516106239190612e3a565b60405180910390f35b34801561063857600080fd5b50610653600480360381019061064e919061394c565b611ccb565b6040516106609190612ef5565b60405180910390f35b34801561067557600080fd5b50610690600480360381019061068b919061398c565b611d5f565b60405161069d91906138e8565b60405180910390f35b3480156106b257600080fd5b506106cd60048036038101906106c8919061398c565b611d74565b005b600080600083815260200190815260200160002060008473ffffffffffffffffffffffffffffffffffffffff1673ffffffffffffffffffffffffffffffffffffffff16815260200190815260200160002054905092915050565b60007fd9b67a26000000000000000000000000000000000000000000000000000000007bffffffffffffffffffffffffffffffffffffffffffffffffffffffff1916827bffffffffffffffffffffffffffffffffffffffffffffffffffffffff191614806107f457507f0e89341c000000000000000000000000000000000000000000000000000000007bffffffffffffffffffffffffffffffffffffffffffffffffffffffff1916827bffffffffffffffffffffffffffffffffffffffffffffffffffffffff1916145b80610804575061080382611e1c565b5b9050919050565b600b60006005600084815260200190815260200160002060010154815260200190815260200160002060009054906101000a900473ffffffffffffffffffffffffffffffffffffffff1673ffffffffffffffffffffffffffffffffffffffff163373ffffffffffffffffffffffffffffffffffffffff16146108c2576040517f08c379a00000000000000000000000000000000000000000000000000000000081526004016108b990613a6f565b60405180910390fd5b6008600082815260200190815260200160002060009054906101000a900460ff1615610923576040517f08c379a000000000000000000000000000000000000000000000000000000000815260040161091a90613adb565b60405180910390fd5b60016008600083815260200190815260200160002060006101000a81548160ff0219169083151502179055507f7523a5038b0221808d5987c7a4c3a6d9074ed76bf247f76665b2ed493e8fd1fb8133604051610980929190613afb565b60405180910390a150565b60056020528060005260406000206000915090508060000180546109ae90613b53565b80601f01602080910402602001604051908101604052809291908181526020018280546109da90613b53565b8015610a275780601f106109fc57610100808354040283529160200191610a27565b820191906000526020600020905b815481529060010190602001808311610a0a57829003601f168201915b505050505090806001015490806002018054610a4290613b53565b80601f0160208091040260200160405190810160405280929190818152602001828054610a6e90613b53565b8015610abb5780601f10610a9057610100808354040283529160200191610abb565b820191906000526020600020905b815481529060010190602001808311610a9e57829003601f168201915b5050505050908060030154908060040154908060050154908060060154905087565b606060028054610aec90613b53565b80601f0160208091040260200160405190810160405280929190818152602001828054610b1890613b53565b8015610b655780601f10610b3a57610100808354040283529160200191610b65565b820191906000526020600020905b815481529060010190602001808311610b4857829003601f168201915b50505050509050919050565b600c6020528060005260406000206000915054906101000a900473ffffffffffffffffffffffffffffffffffffffff1681565b610bac612d12565b6000600a60008481526020019081526020016000206040518060a0016040529081600082018054610bdc90613b53565b80601f0160208091040260200160405190810160405280929190818152602001828054610c0890613b53565b8015610c555780601f10610c2a57610100808354040283529160200191610c55565b820191906000526020600020905b815481529060010190602001808311610c3857829003601f168201915b5050505050815260200160018201548152602001600282018054610c7890613b53565b80601f0160208091040260200160405190810160405280929190818152602001828054610ca490613b53565b8015610cf15780601f10610cc657610100808354040283529160200191610cf1565b820191906000526020600020905b815481529060010190602001808311610cd457829003601f168201915b50505050508152602001600382015481526020016004820160009054906101000a900460ff16151515158152505090506008600084815260200190815260200160002060009054906101000a900460ff1681608001901515908115158152505080915050919050565b60086020528060005260406000206000915054906101000a900460ff1681565b6000610d84611e86565b90508073ffffffffffffffffffffffffffffffffffffffff168673ffffffffffffffffffffffffffffffffffffffff1614158015610dc95750610dc78682611ccb565b155b15610e0d5780866040517fe237d922000000000000000000000000000000000000000000000000000000008152600401610e04929190613b84565b60405180910390fd5b610e1a8686868686611e8e565b505050505050565b610e2a611f86565b3373ffffffffffffffffffffffffffffffffffffffff16600c600084815260200190815260200160002060009054906101000a900473ffffffffffffffffffffffffffffffffffffffff1673ffffffffffffffffffffffffffffffffffffffff1614610ecb576040517f08c379a0000000000000000000000000000000000000000000000000000000008152600401610ec290613bf9565b60405180910390fd5b6008600083815260200190815260200160002060009054906101000a900460ff1615610f2c576040517f08c379a0000000000000000000000000000000000000000000000000000000008152600401610f2390613c65565b60405180910390fd5b6000600660008481526020019081526020016000205490506064600a82610f539190613cb4565b610f5d9190613d25565b81610f689190613d56565b821115610faa576040517f08c379a0000000000000000000000000000000000000000000000000000000008152600401610fa190613dd6565b60405180910390fd5b610fb2611fcc565b610fbc3330611ccb565b610ffb576040517f08c379a0000000000000000000000000000000000000000000000000000000008152600401610ff290613e42565b60405180910390fd5b611018333085600160405180602001604052806000815250611fd9565b60405180606001604052808481526020018381526020013373ffffffffffffffffffffffffffffffffffffffff1681525060076000858152602001908152602001600020600082015181600001556020820151816001015560408201518160020160006101000a81548173ffffffffffffffffffffffffffffffffffffffff021916908373ffffffffffffffffffffffffffffffffffffffff16021790555090505030600c600085815260200190815260200160002060006101000a81548173ffffffffffffffffffffffffffffffffffffffff021916908373ffffffffffffffffffffffffffffffffffffffff1602179055507f796a59a7a4c697d47537610ecd74a44a1c7903071c0330e278f4529fc167c0ee83833360405161113f939291906135fd565b60405180910390a1506111506120e4565b5050565b600e5481565b600d600081548092919061116d90613e62565b9190505550600060016004876040516111869190613ee6565b90815260200160405180910390205461119f9190613d56565b90506004866040516111b19190613ee6565b908152602001604051809103902060008154809291906111d090613e62565b91905055506040518060e00160405280878152602001828152602001868152602001858152602001848152602001600081526020018381525060056000600d548152602001908152602001600020600082015181600001908161123391906140a9565b5060208201518160010155604082015181600201908161125391906140a9565b50606082015181600301556080820151816004015560a0820151816005015560c0820151816006015590505033600b6000600d54815260200190815260200160002060006101000a81548173ffffffffffffffffffffffffffffffffffffffff021916908373ffffffffffffffffffffffffffffffffffffffff160217905550611301336112e3888489896120ee565b6112ec8761218d565b6040518060200160405280600081525061221f565b61130c306001611863565b60005b8481101561139f576000611325888489856122a5565b905084600660008381526020019081526020016000208190555033600c600083815260200190815260200160002060006101000a81548173ffffffffffffffffffffffffffffffffffffffff021916908373ffffffffffffffffffffffffffffffffffffffff16021790555050808060010191505061130f565b507f72deeb9ef57375133dcdf3dd5ba7a069d5bb62851a22ce62f0f3bbd7a4343aef600d54878387876040516113d995949392919061417b565b60405180910390a1505050505050565b60076020528060005260406000206000915090508060000154908060010154908060020160009054906101000a900473ffffffffffffffffffffffffffffffffffffffff16905083565b6060815183511461147f57815183516040517f5b0599910000000000000000000000000000000000000000000000000000000081526004016114769291906141d5565b60405180910390fd5b6000835167ffffffffffffffff81111561149c5761149b6131a2565b5b6040519080825280602002602001820160405280156114ca5781602001602082028036833780820191505090505b50905060005b8451811015611531576115076114ef828761238890919063ffffffff16565b611502838761239c90919063ffffffff16565b6106cf565b82828151811061151a576115196141fe565b5b6020026020010181815250508060010190506114d0565b508091505092915050565b611544611f86565b600a600960003373ffffffffffffffffffffffffffffffffffffffff1673ffffffffffffffffffffffffffffffffffffffff16815260200190815260200160002054106115c6576040517f08c379a00000000000000000000000000000000000000000000000000000000081526004016115bd90614279565b60405180910390fd5b6000600660008381526020019081526020016000205490506000600c600084815260200190815260200160002060009054906101000a900473ffffffffffffffffffffffffffffffffffffffff1690503373ffffffffffffffffffffffffffffffffffffffff168173ffffffffffffffffffffffffffffffffffffffff1603611684576040517f08c379a000000000000000000000000000000000000000000000000000000000815260040161167b906142e5565b60405180910390fd5b8134146116c6576040517f08c379a00000000000000000000000000000000000000000000000000000000081526004016116bd90614351565b60405180910390fd5b6116d08130611ccb565b61170f576040517f08c379a0000000000000000000000000000000000000000000000000000000008152600401611706906143bd565b60405180910390fd5b61172c813385600160405180602001604052806000815250611fd9565b8073ffffffffffffffffffffffffffffffffffffffff166108fc349081150290604051600060405180830381858888f19350505050158015611772573d6000803e3d6000fd5b5033600c600085815260200190815260200160002060006101000a81548173ffffffffffffffffffffffffffffffffffffffff021916908373ffffffffffffffffffffffffffffffffffffffff160217905550600960003373ffffffffffffffffffffffffffffffffffffffff1673ffffffffffffffffffffffffffffffffffffffff168152602001908152602001600020600081548092919061181590613e62565b919050555050506118246120e4565b50565b7f000000000000000000000000000000000000000000000000000000000000000081565b60096020528060005260406000206000915090505481565b61187561186e611e86565b83836123b0565b5050565b600d5481565b600063bc197c8160e01b905095945050505050565b61189c611f86565b60006007600083815260200190815260200160002060405180606001604052908160008201548152602001600182015481526020016002820160009054906101000a900473ffffffffffffffffffffffffffffffffffffffff1673ffffffffffffffffffffffffffffffffffffffff1673ffffffffffffffffffffffffffffffffffffffff16815250509050600073ffffffffffffffffffffffffffffffffffffffff16816040015173ffffffffffffffffffffffffffffffffffffffff160361199b576040517f08c379a000000000000000000000000000000000000000000000000000000000815260040161199290614429565b60405180910390fd5b806020015134146119e1576040517f08c379a00000000000000000000000000000000000000000000000000000000081526004016119d890614495565b60405180910390fd5b3373ffffffffffffffffffffffffffffffffffffffff16816040015173ffffffffffffffffffffffffffffffffffffffff1603611a53576040517f08c379a0000000000000000000000000000000000000000000000000000000008152600401611a4a90614501565b60405180910390fd5b611a70303384600160405180602001604052806000815250611fd9565b60006064600e5434611a829190613cb4565b611a8c9190613d25565b9050816040015173ffffffffffffffffffffffffffffffffffffffff166108fc8234611ab89190614521565b9081150290604051600060405180830381858888f19350505050158015611ae3573d6000803e3d6000fd5b507f000000000000000000000000000000000000000000000000000000000000000073ffffffffffffffffffffffffffffffffffffffff166108fc829081150290604051600060405180830381858888f19350505050158015611b4a573d6000803e3d6000fd5b50600960003373ffffffffffffffffffffffffffffffffffffffff1673ffffffffffffffffffffffffffffffffffffffff1681526020019081526020016000206000815480929190611b9b90613e62565b919050555033600c600085815260200190815260200160002060006101000a81548173ffffffffffffffffffffffffffffffffffffffff021916908373ffffffffffffffffffffffffffffffffffffffff1602179055506007600084815260200190815260200160002060008082016000905560018201600090556002820160006101000a81549073ffffffffffffffffffffffffffffffffffffffff021916905550507fe39135ae9a8f1caafd7e67a9dd98cef770246b0fe0178a0e41b622db0053499d8333604051611c70929190613afb565b60405180910390a15050611c826120e4565b50565b60066020528060005260406000206000915090505481565b6004818051602081018201805184825260208301602085012081835280955050505050506000915090505481565b6000600160008473ffffffffffffffffffffffffffffffffffffffff1673ffffffffffffffffffffffffffffffffffffffff16815260200190815260200160002060008373ffffffffffffffffffffffffffffffffffffffff1673ffffffffffffffffffffffffffffffffffffffff16815260200190815260200160002060009054906101000a900460ff16905092915050565b600063f23a6e6160e01b905095945050505050565b6000611d7e611e86565b90508073ffffffffffffffffffffffffffffffffffffffff168673ffffffffffffffffffffffffffffffffffffffff1614158015611dc35750611dc18682611ccb565b155b15611e075780866040517fe237d922000000000000000000000000000000000000000000000000000000008152600401611dfe929190613b84565b60405180910390fd5b611e148686868686611fd9565b505050505050565b60007f01ffc9a7000000000000000000000000000000000000000000000000000000007bffffffffffffffffffffffffffffffffffffffffffffffffffffffff1916827bffffffffffffffffffffffffffffffffffffffffffffffffffffffff1916149050919050565b600033905090565b600073ffffffffffffffffffffffffffffffffffffffff168473ffffffffffffffffffffffffffffffffffffffff1603611f005760006040517f57f447ce000000000000000000000000000000000000000000000000000000008152600401611ef7919061307b565b60405180910390fd5b600073ffffffffffffffffffffffffffffffffffffffff168573ffffffffffffffffffffffffffffffffffffffff1603611f725760006040517f01a83514000000000000000000000000000000000000000000000000000000008152600401611f69919061307b565b60405180910390fd5b611f7f8585858585612520565b5050505050565b600260035403611fc2576040517f3ee5aeb500000000000000000000000000000000000000000000000000000000815260040160405180910390fd5b6002600381905550565b611fd7306001611863565b565b600073ffffffffffffffffffffffffffffffffffffffff168473ffffffffffffffffffffffffffffffffffffffff160361204b5760006040517f57f447ce000000000000000000000000000000000000000000000000000000008152600401612042919061307b565b60405180910390fd5b600073ffffffffffffffffffffffffffffffffffffffff168573ffffffffffffffffffffffffffffffffffffffff16036120bd5760006040517f01a835140000000000000000000000000000000000000000000000000000000081526004016120b4919061307b565b60405180910390fd5b6000806120ca85856125d2565b915091506120db8787848487612520565b50505050505050565b6001600381905550565b606060008267ffffffffffffffff81111561210c5761210b6131a2565b5b60405190808252806020026020018201604052801561213a5781602001602082028036833780820191505090505b50905060005b8381101561218057612154878787846122a5565b828281518110612167576121666141fe565b5b6020026020010181815250508080600101915050612140565b5080915050949350505050565b606060008267ffffffffffffffff8111156121ab576121aa6131a2565b5b6040519080825280602002602001820160405280156121d95781602001602082028036833780820191505090505b50905060005b838110156122155760018282815181106121fc576121fb6141fe565b5b60200260200101818152505080806001019150506121df565b5080915050919050565b600073ffffffffffffffffffffffffffffffffffffffff168473ffffffffffffffffffffffffffffffffffffffff16036122915760006040517f57f447ce000000000000000000000000000000000000000000000000000000008152600401612288919061307b565b60405180910390fd5b61229f600085858585612520565b50505050565b60008085858585426040516020016122c1959493929190614576565b6040516020818303038152906040528051906020012060001c90506040518060a0016040528087815260200186815260200185815260200184815260200160001515815250600a6000838152602001908152602001600020600082015181600001908161232e91906140a9565b5060208201518160010155604082015181600201908161234e91906140a9565b506060820151816003015560808201518160040160006101000a81548160ff02191690831515021790555090505080915050949350505050565b600060208202602084010151905092915050565b600060208202602084010151905092915050565b600073ffffffffffffffffffffffffffffffffffffffff168273ffffffffffffffffffffffffffffffffffffffff16036124225760006040517fced3e100000000000000000000000000000000000000000000000000000000008152600401612419919061307b565b60405180910390fd5b80600160008573ffffffffffffffffffffffffffffffffffffffff1673ffffffffffffffffffffffffffffffffffffffff16815260200190815260200160002060008473ffffffffffffffffffffffffffffffffffffffff1673ffffffffffffffffffffffffffffffffffffffff16815260200190815260200160002060006101000a81548160ff0219169083151502179055508173ffffffffffffffffffffffffffffffffffffffff168373ffffffffffffffffffffffffffffffffffffffff167f17307eab39ab6107e8899845ad3d59bd9653f200f220920489ca2b5937696c31836040516125139190612ef5565b60405180910390a3505050565b61252c85858585612602565b600073ffffffffffffffffffffffffffffffffffffffff168473ffffffffffffffffffffffffffffffffffffffff16146125cb57600061256a611e86565b905060018451036125ba57600061258b60008661239c90919063ffffffff16565b905060006125a360008661239c90919063ffffffff16565b90506125b38389898585896129aa565b50506125c9565b6125c8818787878787612b5e565b5b505b5050505050565b60608060405191506001825283602083015260408201905060018152826020820152604081016040529250929050565b805182511461264c57815181516040517f5b0599910000000000000000000000000000000000000000000000000000000081526004016126439291906141d5565b60405180910390fd5b6000612656611e86565b905060005b8351811015612865576000612679828661239c90919063ffffffff16565b90506000612690838661239c90919063ffffffff16565b9050600073ffffffffffffffffffffffffffffffffffffffff168873ffffffffffffffffffffffffffffffffffffffff16146127bd57600080600084815260200190815260200160002060008a73ffffffffffffffffffffffffffffffffffffffff1673ffffffffffffffffffffffffffffffffffffffff1681526020019081526020016000205490508181101561276557888183856040517f03dee4c500000000000000000000000000000000000000000000000000000000815260040161275c94939291906145cd565b60405180910390fd5b81810360008085815260200190815260200160002060008b73ffffffffffffffffffffffffffffffffffffffff1673ffffffffffffffffffffffffffffffffffffffff16815260200190815260200160002081905550505b600073ffffffffffffffffffffffffffffffffffffffff168773ffffffffffffffffffffffffffffffffffffffff1614612858578060008084815260200190815260200160002060008973ffffffffffffffffffffffffffffffffffffffff1673ffffffffffffffffffffffffffffffffffffffff16815260200190815260200160002060008282546128509190613d56565b925050819055505b505080600101905061265b565b50600183510361292457600061288560008561239c90919063ffffffff16565b9050600061289d60008561239c90919063ffffffff16565b90508573ffffffffffffffffffffffffffffffffffffffff168773ffffffffffffffffffffffffffffffffffffffff168473ffffffffffffffffffffffffffffffffffffffff167fc3d58168c5ae7397731d063d5bbf3d657854427343f4c083240f7aacaa2d0f6285856040516129159291906141d5565b60405180910390a450506129a3565b8373ffffffffffffffffffffffffffffffffffffffff168573ffffffffffffffffffffffffffffffffffffffff168273ffffffffffffffffffffffffffffffffffffffff167f4a39dc06d4c0dbc64b70af90fd698a233a518aa5d07e595d983b8c0526c8f7fb868660405161299a929190614612565b60405180910390a45b5050505050565b60008473ffffffffffffffffffffffffffffffffffffffff163b1115612b56578373ffffffffffffffffffffffffffffffffffffffff1663f23a6e6187878686866040518663ffffffff1660e01b8152600401612a0b95949392919061469e565b6020604051808303816000875af1925050508015612a4757506040513d601f19601f82011682018060405250810190612a44919061470d565b60015b612acb573d8060008114612a77576040519150601f19603f3d011682016040523d82523d6000602084013e612a7c565b606091505b506000815103612ac357846040517f57f447ce000000000000000000000000000000000000000000000000000000008152600401612aba919061307b565b60405180910390fd5b805181602001fd5b63f23a6e6160e01b7bffffffffffffffffffffffffffffffffffffffffffffffffffffffff1916817bffffffffffffffffffffffffffffffffffffffffffffffffffffffff191614612b5457846040517f57f447ce000000000000000000000000000000000000000000000000000000008152600401612b4b919061307b565b60405180910390fd5b505b505050505050565b60008473ffffffffffffffffffffffffffffffffffffffff163b1115612d0a578373ffffffffffffffffffffffffffffffffffffffff1663bc197c8187878686866040518663ffffffff1660e01b8152600401612bbf95949392919061473a565b6020604051808303816000875af1925050508015612bfb57506040513d601f19601f82011682018060405250810190612bf8919061470d565b60015b612c7f573d8060008114612c2b576040519150601f19603f3d011682016040523d82523d6000602084013e612c30565b606091505b506000815103612c7757846040517f57f447ce000000000000000000000000000000000000000000000000000000008152600401612c6e919061307b565b60405180910390fd5b805181602001fd5b63bc197c8160e01b7bffffffffffffffffffffffffffffffffffffffffffffffffffffffff1916817bffffffffffffffffffffffffffffffffffffffffffffffffffffffff191614612d0857846040517f57f447ce000000000000000000000000000000000000000000000000000000008152600401612cff919061307b565b60405180910390fd5b505b505050505050565b6040518060a00160405280606081526020016000815260200160608152602001600081526020016000151581525090565b6000604051905090565b600080fd5b600080fd5b600073ffffffffffffffffffffffffffffffffffffffff82169050919050565b6000612d8282612d57565b9050919050565b612d9281612d77565b8114612d9d57600080fd5b50565b600081359050612daf81612d89565b92915050565b6000819050919050565b612dc881612db5565b8114612dd357600080fd5b50565b600081359050612de581612dbf565b92915050565b60008060408385031215612e0257612e01612d4d565b5b6000612e1085828601612da0565b9250506020612e2185828601612dd6565b9150509250929050565b612e3481612db5565b82525050565b6000602082019050612e4f6000830184612e2b565b92915050565b60007fffffffff0000000000000000000000000000000000000000000000000000000082169050919050565b612e8a81612e55565b8114612e9557600080fd5b50565b600081359050612ea781612e81565b92915050565b600060208284031215612ec357612ec2612d4d565b5b6000612ed184828501612e98565b91505092915050565b60008115159050919050565b612eef81612eda565b82525050565b6000602082019050612f0a6000830184612ee6565b92915050565b600060208284031215612f2657612f25612d4d565b5b6000612f3484828501612dd6565b91505092915050565b600081519050919050565b600082825260208201905092915050565b60005b83811015612f77578082015181840152602081019050612f5c565b60008484015250505050565b6000601f19601f8301169050919050565b6000612f9f82612f3d565b612fa98185612f48565b9350612fb9818560208601612f59565b612fc281612f83565b840191505092915050565b600060e0820190508181036000830152612fe7818a612f94565b9050612ff66020830189612e2b565b81810360408301526130088188612f94565b90506130176060830187612e2b565b6130246080830186612e2b565b61303160a0830185612e2b565b61303e60c0830184612e2b565b98975050505050505050565b600060208201905081810360008301526130648184612f94565b905092915050565b61307581612d77565b82525050565b6000602082019050613090600083018461306c565b92915050565b600082825260208201905092915050565b60006130b282612f3d565b6130bc8185613096565b93506130cc818560208601612f59565b6130d581612f83565b840191505092915050565b6130e981612db5565b82525050565b6130f881612eda565b82525050565b600060a083016000830151848203600086015261311b82826130a7565b915050602083015161313060208601826130e0565b506040830151848203604086015261314882826130a7565b915050606083015161315d60608601826130e0565b50608083015161317060808601826130ef565b508091505092915050565b6000602082019050818103600083015261319581846130fe565b905092915050565b600080fd5b7f4e487b7100000000000000000000000000000000000000000000000000000000600052604160045260246000fd5b6131da82612f83565b810181811067ffffffffffffffff821117156131f9576131f86131a2565b5b80604052505050565b600061320c612d43565b905061321882826131d1565b919050565b600067ffffffffffffffff821115613238576132376131a2565b5b602082029050602081019050919050565b600080fd5b600061326161325c8461321d565b613202565b9050808382526020820190506020840283018581111561328457613283613249565b5b835b818110156132ad57806132998882612dd6565b845260208401935050602081019050613286565b5050509392505050565b600082601f8301126132cc576132cb61319d565b5b81356132dc84826020860161324e565b91505092915050565b600080fd5b600067ffffffffffffffff821115613305576133046131a2565b5b61330e82612f83565b9050602081019050919050565b82818337600083830152505050565b600061333d613338846132ea565b613202565b905082815260208101848484011115613359576133586132e5565b5b61336484828561331b565b509392505050565b600082601f8301126133815761338061319d565b5b813561339184826020860161332a565b91505092915050565b600080600080600060a086880312156133b6576133b5612d4d565b5b60006133c488828901612da0565b95505060206133d588828901612da0565b945050604086013567ffffffffffffffff8111156133f6576133f5612d52565b5b613402888289016132b7565b935050606086013567ffffffffffffffff81111561342357613422612d52565b5b61342f888289016132b7565b925050608086013567ffffffffffffffff8111156134505761344f612d52565b5b61345c8882890161336c565b9150509295509295909350565b600080604083850312156134805761347f612d4d565b5b600061348e85828601612dd6565b925050602061349f85828601612dd6565b9150509250929050565b600067ffffffffffffffff8211156134c4576134c36131a2565b5b6134cd82612f83565b9050602081019050919050565b60006134ed6134e8846134a9565b613202565b905082815260208101848484011115613509576135086132e5565b5b61351484828561331b565b509392505050565b600082601f8301126135315761353061319d565b5b81356135418482602086016134da565b91505092915050565b600080600080600060a0868803121561356657613565612d4d565b5b600086013567ffffffffffffffff81111561358457613583612d52565b5b6135908882890161351c565b955050602086013567ffffffffffffffff8111156135b1576135b0612d52565b5b6135bd8882890161351c565b94505060406135ce88828901612dd6565b93505060606135df88828901612dd6565b92505060806135f088828901612dd6565b9150509295509295909350565b60006060820190506136126000830186612e2b565b61361f6020830185612e2b565b61362c604083018461306c565b949350505050565b600067ffffffffffffffff82111561364f5761364e6131a2565b5b602082029050602081019050919050565b600061367361366e84613634565b613202565b9050808382526020820190506020840283018581111561369657613695613249565b5b835b818110156136bf57806136ab8882612da0565b845260208401935050602081019050613698565b5050509392505050565b600082601f8301126136de576136dd61319d565b5b81356136ee848260208601613660565b91505092915050565b6000806040838503121561370e5761370d612d4d565b5b600083013567ffffffffffffffff81111561372c5761372b612d52565b5b613738858286016136c9565b925050602083013567ffffffffffffffff81111561375957613758612d52565b5b613765858286016132b7565b9150509250929050565b600081519050919050565b600082825260208201905092915050565b6000819050602082019050919050565b60006137a783836130e0565b60208301905092915050565b6000602082019050919050565b60006137cb8261376f565b6137d5818561377a565b93506137e08361378b565b8060005b838110156138115781516137f8888261379b565b9750613803836137b3565b9250506001810190506137e4565b5085935050505092915050565b6000602082019050818103600083015261383881846137c0565b905092915050565b60006020828403121561385657613855612d4d565b5b600061386484828501612da0565b91505092915050565b61387681612eda565b811461388157600080fd5b50565b6000813590506138938161386d565b92915050565b600080604083850312156138b0576138af612d4d565b5b60006138be85828601612da0565b92505060206138cf85828601613884565b9150509250929050565b6138e281612e55565b82525050565b60006020820190506138fd60008301846138d9565b92915050565b60006020828403121561391957613918612d4d565b5b600082013567ffffffffffffffff81111561393757613936612d52565b5b6139438482850161351c565b91505092915050565b6000806040838503121561396357613962612d4d565b5b600061397185828601612da0565b925050602061398285828601612da0565b9150509250929050565b600080600080600060a086880312156139a8576139a7612d4d565b5b60006139b688828901612da0565b95505060206139c788828901612da0565b94505060406139d888828901612dd6565b93505060606139e988828901612dd6565b925050608086013567ffffffffffffffff811115613a0a57613a09612d52565b5b613a168882890161336c565b9150509295509295909350565b7f4f6e6c79206576656e742063726561746f722063616e2076616c696461746500600082015250565b6000613a59601f83612f48565b9150613a6482613a23565b602082019050919050565b60006020820190508181036000830152613a8881613a4c565b9050919050565b7f5469636b657420616c7265616479207573656400000000000000000000000000600082015250565b6000613ac5601383612f48565b9150613ad082613a8f565b602082019050919050565b60006020820190508181036000830152613af481613ab8565b9050919050565b6000604082019050613b106000830185612e2b565b613b1d602083018461306c565b9392505050565b7f4e487b7100000000000000000000000000000000000000000000000000000000600052602260045260246000fd5b60006002820490506001821680613b6b57607f821691505b602082108103613b7e57613b7d613b24565b5b50919050565b6000604082019050613b99600083018561306c565b613ba6602083018461306c565b9392505050565b7f596f7520646f206e6f74206f776e2074686973207469636b6574000000000000600082015250565b6000613be3601a83612f48565b9150613bee82613bad565b602082019050919050565b60006020820190508181036000830152613c1281613bd6565b9050919050565b7f55736564207469636b6574732063616e6e6f74206265207265736f6c64000000600082015250565b6000613c4f601d83612f48565b9150613c5a82613c19565b602082019050919050565b60006020820190508181036000830152613c7e81613c42565b9050919050565b7f4e487b7100000000000000000000000000000000000000000000000000000000600052601160045260246000fd5b6000613cbf82612db5565b9150613cca83612db5565b9250828202613cd881612db5565b91508282048414831517613cef57613cee613c85565b5b5092915050565b7f4e487b7100000000000000000000000000000000000000000000000000000000600052601260045260246000fd5b6000613d3082612db5565b9150613d3b83612db5565b925082613d4b57613d4a613cf6565b5b828204905092915050565b6000613d6182612db5565b9150613d6c83612db5565b9250828201905080821115613d8457613d83613c85565b5b92915050565b7f4d617820726573616c6520707269636520657863656564656400000000000000600082015250565b6000613dc0601983612f48565b9150613dcb82613d8a565b602082019050919050565b60006020820190508181036000830152613def81613db3565b9050919050565b7f417070726f76652074686520636f6e7472616374206669727374000000000000600082015250565b6000613e2c601a83612f48565b9150613e3782613df6565b602082019050919050565b60006020820190508181036000830152613e5b81613e1f565b9050919050565b6000613e6d82612db5565b91507fffffffffffffffffffffffffffffffffffffffffffffffffffffffffffffffff8203613e9f57613e9e613c85565b5b600182019050919050565b600081905092915050565b6000613ec082612f3d565b613eca8185613eaa565b9350613eda818560208601612f59565b80840191505092915050565b6000613ef28284613eb5565b915081905092915050565b60008190508160005260206000209050919050565b60006020601f8301049050919050565b600082821b905092915050565b600060088302613f5f7fffffffffffffffffffffffffffffffffffffffffffffffffffffffffffffffff82613f22565b613f698683613f22565b95508019841693508086168417925050509392505050565b6000819050919050565b6000613fa6613fa1613f9c84612db5565b613f81565b612db5565b9050919050565b6000819050919050565b613fc083613f8b565b613fd4613fcc82613fad565b848454613f2f565b825550505050565b600090565b613fe9613fdc565b613ff4818484613fb7565b505050565b5b818110156140185761400d600082613fe1565b600181019050613ffa565b5050565b601f82111561405d5761402e81613efd565b61403784613f12565b81016020851015614046578190505b61405a61405285613f12565b830182613ff9565b50505b505050565b600082821c905092915050565b600061408060001984600802614062565b1980831691505092915050565b6000614099838361406f565b9150826002028217905092915050565b6140b282612f3d565b67ffffffffffffffff8111156140cb576140ca6131a2565b5b6140d58254613b53565b6140e082828561401c565b600060209050601f8311600181146141135760008415614101578287015190505b61410b858261408d565b865550614173565b601f19841661412186613efd565b60005b8281101561414957848901518255600182019150602085019450602081019050614124565b868310156141665784890151614162601f89168261406f565b8355505b6001600288020188555050505b505050505050565b600060a0820190506141906000830188612e2b565b81810360208301526141a28187612f94565b90506141b16040830186612e2b565b6141be6060830185612e2b565b6141cb6080830184612e2b565b9695505050505050565b60006040820190506141ea6000830185612e2b565b6141f76020830184612e2b565b9392505050565b7f4e487b7100000000000000000000000000000000000000000000000000000000600052603260045260246000fd5b7f4d61782062757920636f756e7420726561636865640000000000000000000000600082015250565b6000614263601583612f48565b915061426e8261422d565b602082019050919050565b6000602082019050818103600083015261429281614256565b9050919050565b7f596f7520616c7265616479206f776e2074686973207469636b65740000000000600082015250565b60006142cf601b83612f48565b91506142da82614299565b602082019050919050565b600060208201905081810360008301526142fe816142c2565b9050919050565b7f496e636f727265637420416d6f756e742053656e740000000000000000000000600082015250565b600061433b601583612f48565b915061434682614305565b602082019050919050565b6000602082019050818103600083015261436a8161432e565b9050919050565b7f4d61726b6574706c616365206e6f7420617070726f7665640000000000000000600082015250565b60006143a7601883612f48565b91506143b282614371565b602082019050919050565b600060208201905081810360008301526143d68161439a565b9050919050565b7f5469636b6574206e6f7420666f7220726573616c650000000000000000000000600082015250565b6000614413601583612f48565b915061441e826143dd565b602082019050919050565b6000602082019050818103600083015261444281614406565b9050919050565b7f496e636f727265637420616d6f756e742073656e740000000000000000000000600082015250565b600061447f601583612f48565b915061448a82614449565b602082019050919050565b600060208201905081810360008301526144ae81614472565b9050919050565b7f43616e6e6f742062757920796f7572206f776e207469636b6574000000000000600082015250565b60006144eb601a83612f48565b91506144f6826144b5565b602082019050919050565b6000602082019050818103600083015261451a816144de565b9050919050565b600061452c82612db5565b915061453783612db5565b925082820390508181111561454f5761454e613c85565b5b92915050565b6000819050919050565b61457061456b82612db5565b614555565b82525050565b60006145828288613eb5565b915061458e828761455f565b60208201915061459e8286613eb5565b91506145aa828561455f565b6020820191506145ba828461455f565b6020820191508190509695505050505050565b60006080820190506145e2600083018761306c565b6145ef6020830186612e2b565b6145fc6040830185612e2b565b6146096060830184612e2b565b95945050505050565b6000604082019050818103600083015261462c81856137c0565b9050818103602083015261464081846137c0565b90509392505050565b600081519050919050565b600082825260208201905092915050565b600061467082614649565b61467a8185614654565b935061468a818560208601612f59565b61469381612f83565b840191505092915050565b600060a0820190506146b3600083018861306c565b6146c0602083018761306c565b6146cd6040830186612e2b565b6146da6060830185612e2b565b81810360808301526146ec8184614665565b90509695505050505050565b60008151905061470781612e81565b92915050565b60006020828403121561472357614722612d4d565b5b6000614731848285016146f8565b91505092915050565b600060a08201905061474f600083018861306c565b61475c602083018761306c565b818103604083015261476e81866137c0565b9050818103606083015261478281856137c0565b905081810360808301526147968184614665565b9050969550505050505056fea26469706673582212204b27b8f65ef7830d2fcac506b030be872afd37179851b56febace4ee6b58103164736f6c63430008180033",
  "linkReferences": {},
  "deployedLinkReferences": {}
}